:10000000F8C000000C94440F0C946F0F0C949A0FDE
:100010000C94C50F0C94F00F0C941B100C9446100C
:100020000C94711029C20000CAC2000004C3000071
:1000300011C100000FC100000DC100000BC1000084
:1000400009C1000007C1000005C1000003C1000094
:100050000C94550BFFC00000FDC000000C949C10D8
:10006000F9C000000C9415140C944B14F3C000005C
:10007000F1C00000EFC00000EDC00000EBC00000C8
:10008000E9C00000E7C00000E5C00000E3C00000D8
:100090000C94A1140C94D714DDC00000DBC0000048
:1000A000D9C00000D7C00000D5C00000D3C00000F8
:1000B000D1C00000CFC00000CDC00000CBC0000008
:1000C000C9C00000C7C00000C5C000000C942D15B9
:1000D0000C946315BFC000000C94B9150C94EF1577
:1000E000B9C0000000000A0B02090C0D0E0807033E
:1000F00004010000000000000000000000000000FB
:1001000000000000000000000000000000000000EF
:1001100012111000000000000000000000000000AC
:100120000000000000000000000001021020200874
:100130000810204010204080020102010804020142
:1001400001020408102040808040201008040201B1
:10015000800402018040201008040201080402010A
:100160000102040810204080010204081020408091
:1001700005050505070508080808020202020A0A23
:100180000808040404040101010101010101030341
:10019000030303030303040707070C0C0C0C0C0CEC
:1001A0000C0C0202020206060606060606060B0BE9
:1001B0000B0B0B0B0B0B00002200250028002B0063
:1001C0002E003100340002010000050108010B017E
:1001D00000002100240027002A002D0030003300F9
:1001E00001010000040107010A01741400158C15B7
:1001F000181611241FBECFEFD1E2DEBFCDBF00E045
:100200000CBF12E0A0E0B2E0ECE3FDE200E00BBFC7
:1002100002C007900D92A037B107D9F725E0A0E7FB
:10022000B2E001C01D92AA38B207E1F710E0C9EFB1
:10023000D0E000E006C021970109802FFE010E9456
:100240009416C53FD10780E00807A9F70E94C40BA8
:100250000C949C16D5CE611102C00C9482126130B0
:10026000E1F362E0FACF662319F061E00C94BE126C
:1002700060E0FCCF9CB1892F807294FF16C0811181
:1002800016C08091740290917502A0917602B0918F
:1002900077020196A11DB11D80937402909375029F
:1002A000A0937602B093770208958111EACF8091EE
:1002B000740290917502A0917602B0917702019735
:1002C000A109B109E9CF99B1892F847093FF16C0B4
:1002D0008823B1F08091820290918302A0918402E0
:1002E000B09185020196A11DB11D80938202909369
:1002F0008302A0938402B09385020895882351F36A
:100300008091820290918302A0918402B091850233
:100310000197A109B109E9CF8CB190E09C01220FAE
:10032000232F221F330B86FF16C0809190029091DD
:100330009102A0919202B0919302232BB9F40196FD
:10034000A11DB11D8093900290939102A0939202FF
:10035000B093930208958091900290919102A091A0
:100360009202B09193022130310549F30197A1091E
:10037000B109E8CF9CB1892F807195FF16C0882301
:10038000B1F08091740290917502A0917602B091C3
:1003900077020196A11DB11D80937402909375029E
:1003A000A0937602B09377020895882351F3809149
:1003B000740290917502A0917602B0917702019734
:1003C000A109B109E9CF99B1892F887092FF16C0B0
:1003D000811116C08091820290918302A0918402C3
:1003E000B09185020196A11DB11D80938202909368
:1003F0008302A0938402B093850208958111EACF0D
:100400008091820290918302A0918402B091850232
:100410000197A109B109E9CF8CB190E086FB2227B1
:1004200020F930E0880F892F881F990B0197B1F4CC
:100430008091900290919102A0919202B0919302CA
:10044000232BB1F00196A11DB11D809390029093D2
:100450009102A0939202B09393020895809190022A
:1004600090919102A0919202B0919302232B51F3AB
:100470000197A109B109E9CF1F920F920FB60F9210
:1004800011242F933F934F935F938F939F93AF9339
:10049000BF9383B121E030E0982F907285FD02C0B8
:1004A00030E020E080744091B4025091B5024217D0
:1004B000530709F062C021E030E0811102C030E052
:1004C00020E03093B3022093B202882309F1911106
:1004D00021C08091AC029091AD02A091AE02B0918A
:1004E000AF020196A11DB11D8093AC029093AD02A5
:1004F000A093AE02B093AF028091AC029091AD0296
:10050000A091AE02B091AF020196A11DB11D20C015
:100510009111DFCF8091AC029091AD02A091AE021B
:10052000B091AF020197A109B1098093AC029093F9
:10053000AD02A093AE02B093AF028091AC02909155
:10054000AD02A091AE02B091AF020197A109B1092D
:100550008093AC029093AD02A093AE02B093AF0231
:10056000BF91AF919F918F915F914F913F912F914B
:100570000F900FBE0F901F9018953093B5022093E7
:10058000B402992371F0882371F08091AC029091AC
:10059000AD02A091AE02B091AF020196A11DB11DB6
:1005A000C4CF882391F38091AC029091AD02A091C9
:1005B000AE02B091AF020197A109B10995CF1F9288
:1005C0000F920FB60F9211248F939F93AF93BF9307
:1005D0008091060181709091030190FF1EC08111EE
:1005E0001EC080919E0290919F02A091A002B091A6
:1005F000A1020196A11DB11D80939E0290939F02BE
:10060000A093A002B093A102BF91AF919F918F914F
:100610000F900FBE0F901F9018958111E2CF80911F
:100620009E0290919F02A091A002B091A102019719
:10063000A109B109E1CF1F920F920FB60F921124B9
:100640008F939F93AF93BF9380910301817090919B
:10065000060190FF1EC08823F1F080919E029091C8
:100660009F02A091A002B091A1020196A11DB11D0F
:1006700080939E0290939F02A093A002B093A10248
:10068000BF91AF919F918F910F900FBE0F901F90D0
:100690001895882311F380919E0290919F02A0915A
:1006A000A002B091A1020197A109B109E1CF0F9376
:1006B0001F93CF93DF938C018EE0809FE001819F99
:1006C000D00D1124C059DD4F798368835B834A8341
:1006D0008881998160E00E9482128A819B8160E01A
:1006E0000E9482128881998161E00E94BE128A81F3
:1006F0009B8161E00E94BE120230110509F487C09F
:1007000064F40115110501F10130110509F450C01F
:10071000DF91CF911F910F9108950330110509F4D6
:10072000A5C004301105A1F7809168008160809315
:10073000680080916B00806280936B0080916B00F9
:10074000806480936B00E4CF80917002909171027D
:1007500002978431910530F5885B9D4FFC018081C3
:10076000082E000C990B41E050E06AE371E00E9412
:10077000CB0E8091720290917302029784319105A1
:10078000A0F4885B9D4FFC018081082E000C990B22
:1007900041E050E06AEB71E0DF91CF911F910F9142
:1007A0000C94CB0E8FEF9FEFDECF8FEF9FEFF0CF4C
:1007B00080917E0290917F0202978431910508F525
:1007C000885B9D4FFC018081082E000C990B41E055
:1007D00050E063EE71E00E94CB0E80918002909118
:1007E000810202978431910578F4885B9D4FFC016A
:1007F0008081082E000C990B41E050E063E671E027
:10080000CBCF8FEF9FEFE3CF8FEF9FEFF5CF8091AF
:100810008C0290918D0202978431910508F5885BD6
:100820009D4FFC018081082E000C990B41E050E0A7
:100830006CE871E00E94CB0E80918E0290918F0245
:1008400002978431910578F4885B9D4FFC0180818B
:10085000082E000C990B41E050E06CE072E09CCF58
:100860008FEF9FEFE3CF8FEF9FEFF5CF8091680081
:100870008460809368008091680082608093680043
:1008800080916D00816080936D0080916C0082602A
:1008900080936C003DCF2EE0269FF001279FF00D46
:1008A0001124E059FD4F64817581868197810895F7
:1008B000CF92DF92EF92FF92CF93882351F16A019A
:1008C0007B01CFEFC80F20E030E0A901CB01B601DA
:1008D0000E94730C87FF11C0C701B60190580E9497
:1008E000E40C9B01AC016C2F70E090E080E0CF91B4
:1008F000FF90EF90DF90CF90B0C0C701B6010E948B
:10090000DF0C8C2FCF91FF90EF90DF90CF900C9465
:100910004811CF91FF90EF90DF90CF9008950F9303
:100920001F938B019C0183E03695279517950795BA
:100930008A95D1F70A541D4F462F477021E030E0C9
:10094000F90102C0EE0FFF1F4A95E2F7AF01F8016F
:1009500020812423CB010196211102C090E080E088
:100960001F910F9108950F931F938B019C0183E0BA
:1009700036952795179507958A95D1F7677081E089
:1009800090E001C0880F6A95EAF7F801EA54FD4F3C
:100990002081452B31F48095822380831F910F9114
:1009A0000895822BFACF2F923F924F925F926F92CF
:1009B0007F928F929F92AF92BF92CF92DF92EF92EF
:1009C000FF920F931F93CF93DF93D62EC72E782ECF
:1009D000692E49015A01280161E08D2D0E94821281
:1009E000CD2DDC2D8E010F5F1F4FA8016D2D7C2DAD
:1009F000872D962DB8DF20E030E0A901C201B701B4
:100A00000E94630E181654F4C201B701DDD72B0102
:100A1000C501B401D9D7A201CE0123D0C801DF910D
:100A2000CF911F910F91FF90EF90DF90CF90BF90EB
:100A3000AF909F908F907F906F905F904F903F907E
:100A40002F900895882341F08150682F70E090E046
:100A500080E050E040E087CF0895862FB9010C94E4
:100A600048119C01FC01EC51FF4FE491E150E2314F
:100A7000E0F4F0E08827E05CFA4F8F4F0C94941676
:100A8000520559055C057305880555059D05A905A1
:100A9000AD05C405D905EE0505061A0655052F0650
:100AA00046065B0684B5806884BD60E0822F0C94A6
:100AB000BE1284B58062F8CF809180008C7F826006
:100AC0008093800080918100807E8061682B60939C
:100AD0008100509387004093860080918000806859
:100AE00080938000E2CF809180008C7F8260809331
:100AF000800080918100807E8061682B60938100FE
:100B00005093870040938600809180008062E8CFF8
:100B1000809180008C7F8260809380008091810032
:100B2000807E8061682B60938100509387004093A2
:100B30008600809180008860D3CF8091B00080686B
:100B40008093B0008091B100887F682B6093B100E2
:100B5000ACCF8091B0008062F3CF809190008C7F09
:100B600082608093900080919100807E8061682BEC
:100B7000609391005093970040939600809190006D
:100B800080688093900091CF809190008C7F8260EC
:100B90008093900080919100807E8061682B6093AB
:100BA000910050939700409396008091900080624E
:100BB000E8CF809190008C7F82608093900080913C
:100BC0009100807E8061682B609391005093970024
:100BD00040939600809190008860D3CF8091A000D0
:100BE0008C7F82608093A0008091A100807E8061D4
:100BF000682B6093A1005093A7004093A6008091BA
:100C0000A00080688093A00050CF8091A0008C7FCE
:100C100082608093A0008091A100807E8061682B1B
:100C20006093A1005093A7004093A6008091A0007C
:100C30008062E8CF8091A0008C7F82608093A000CA
:100C40008091A100807E8061682B6093A100509309
:100C5000A7004093A6008091A0008860D3CF809128
:100C600020018C7F82608093200180912101807E11
:100C70008061682B609321015093270140932601E6
:100C8000809120018068809320010FCF8091200106
:100C90008C7F82608093200180912101807E806121
:100CA000682B609321015093270140932601809186
:100CB00020018062E8CF809120018C7F8260809348
:100CC000200180912101807E8061682B6093210149
:100CD0005093270140932601809120018860D3CF53
:100CE000833009F484C088F4813001F1823009F442
:100CF00053C0633009F4EDC008F0DBC0613009F483
:100D0000DEC0623009F4E0C00895843009F483C085
:100D1000853079F7633009F4B9C008F0A7C06130B5
:100D200009F4AAC0623009F4ACC008956330D1F070
:100D300028F4613049F0623071F00895653001F1B6
:100D4000C0F0663021F1089580918100887F816034
:100D50008093810008958091B100887F81608093A5
:100D6000B100089580919100887F81608093910007
:100D700008958091A100887F81608093A1000895EB
:100D800080912101887F816080932101089585B53C
:100D9000887F816085BD08956330B1F028F46130AB
:100DA00049F0623061F008956530C1F090F066302E
:100DB000D1F0089580918100887F8260C9CF8091B1
:100DC000B100887F8260CBCF80919100887F826064
:100DD000CDCF8091A100887F8260CFCF809121010B
:100DE000887F8260D1CF85B5887F8260D3CF633022
:100DF00009F46FC038F4613009F461C0623009F45D
:100E000063C00895653009F46EC008F467C06630A9
:100E100009F46EC008956330B1F028F4613049F0F0
:100E2000623061F008956530C1F090F06630D1F025
:100E3000089580918100887F84608ACF8091B1007D
:100E4000887F84608CCF80919100887F84608ECF72
:100E50008091A100887F846090CF80912101887F5C
:100E6000846092CF85B5887F846094CF6530C1F06F
:100E700090F06630D1F0089580918100887F856080
:100E800067CF8091B100887F856069CF80919100A4
:100E9000887F85606BCF8091A100887F85606DCF52
:100EA00080912101887F85606FCF85B5887F8560BF
:100EB00071CF6530C1F090F06630D1F00895809127
:100EC0008100887F836044CF8091B100887F8360F8
:100ED00046CF80919100887F836048CF8091A100A8
:100EE000887F83604ACF80912101887F83604CCFC7
:100EF00085B5887F83604ECFCF92DF92EF92FF92CD
:100F00006B017C019F7720E030E040E859E5EBD4AD
:100F100087FF26C020E030E040E05FE3C701B60174
:100F2000D2D687FD0CC020E030E040E05FE3C7018F
:100F3000B60162D4FF90EF90DF90CF90AEC520E075
:100F400030E040E05FEBC701B601BDD618167CF477
:100F500020E030E0A901C701B601B9D66B017C01E0
:100F6000C701B601FF90EF90DF90CF90089520E089
:100F700030E040E05FE3C701B6013DD4FF90EF9061
:100F8000DF90CF909DC44F925F926F927F928F922D
:100F90009F92AF92BF92CF92DF92EF92FF92CF9348
:100FA000DF93C0906705D0906805E0906905F090E8
:100FB0006A05C701B60136D52B013C012091140208
:100FC0003091150240911602509117028CD487FF80
:100FD00097C1F7FC95C180900C0290900D02A090F3
:100FE0000E02B0900F0220E030E040E85FE3609135
:100FF0001002709111028091120290911302FBD3A2
:101000009B01AC01C301B2015ED687FD7DC1109288
:101010006705109268051092690510926A0561E0F3
:1010200070E080E090E037DCFDD420911C0230912C
:101030001D0240911E0250911F0249D620912002AC
:1010400030912102409122025091230240D69B010F
:10105000AC01C501B401CFD3209124023091250207
:10106000409126025091270232D66B017C012091DB
:10107000040230910502409106025091070260E09F
:1010800070E08FE793E433D49B01AC01C701B60154
:101090001ED603D56B017C01DCD2811143C1C7018F
:1010A000B60194D281113EC120E030E040E857E41F
:1010B000C701B6010CD56B017C0120E030E0A9012D
:1010C00012D487FF32C1C701B60190587DD4CC2716
:1010D000DD27C61BD70B20910402309105024091F9
:1010E0000602509107026091000270910102809106
:1010F000020290910302FBD320E030E04FE753E47B
:10110000E6D56B017C01BE01D7FF04C066277727B7
:101110006C1B7D0B072E000C880B990B83D49B0155
:10112000AC01C701B60168D34B015C01C090280235
:10113000D0902902E0902A02F0902B029B01AC0192
:10114000B601C701D0D387FD11C0C0902C02D0904A
:101150002D02E0902E02F0902F029401A501B6011D
:10116000C701B1D5181614F0640175019601A701E5
:10117000609108027091090280910A0290910B021D
:101180003AD36B017C01E894F7F86CE270E080E000
:1011900090E0C5DB90935E0580935D0580913402FD
:1011A00090913502C817D9070CF4C4C050910802B9
:1011B0004091090230910A0220910B02652F742F91
:1011C000832F922F6AD44B015C0143D28111B7C0A7
:1011D000C501B401FBD18111B2C020E030E040E88C
:1011E00053E4C501B40173D44B015C0120E030E04D
:1011F000A90179D387FFA6C0C501B4019058E4D3F3
:10120000619570E090E080E00DD4AB01BC0180916D
:101210005D0590915E054CDB6DE270E080E090E052
:101220007EDB909356058093550580913602909110
:101230003702C817D90744F4C0900802D0900902B9
:10124000E0900A02F0900B02C701B60126D46B01B0
:101250007C01FFD181117AC0C701B601B7D18111DC
:1012600075C020E030E040E853E4C701B6012FD458
:101270006B017C0120E030E0A90135D387FF69C014
:10128000C701B6019058A0D3619570E090E080E06E
:10129000C9D3AB01BC01809155059091560508DB7F
:1012A000609130027091310280913202909133024C
:1012B00023DE6B017C0120E030E040E853E413D3EF
:1012C0006FEF87FF0CC020E030E0A901C701B60135
:1012D000FAD460E087FD03C0C701B60175D387E08B
:1012E000DF91CF91FF90EF90DF90CF90BF90AF90C4
:1012F0009F908F907F906F905F904F900C943301F0
:10130000812C912C54016FCE8FEFC81AD80AE80AAD
:10131000F80AC0926705D0926805E0926905F092DC
:101320006A057DCEC12CD12C7601C701B6014CD304
:10133000EB01D1CE5C2D4D2D3E2D2F2D3FCF812C9D
:10134000912C5401C501B4013FD35BCFC12CD12CEA
:101350007601C701B60138D398CF8F929F92AF9292
:10136000BF92DF92EF92FF920F931F93CF93DF9381
:1013700084E090E0F4D01092C0021092BF02C1E469
:10138000D5E08FE2FE0111928A95E9F7DD24D3942E
:10139000DDA6812C912C5401839489869A86AB8694
:1013A000BC8643E150E062E170E081E090E07FD9EB
:1013B000DD861E8ADCA61B8E8F8A988EA98EBA8E39
:1013C000E12CF12C8701A80197016CE270E080E02C
:1013D00090E0E9DA9D8F8C8FDB8E1E86DBA61B8A60
:1013E0008F86988AA98ABA8AA80197016DE270E06F
:1013F00080E090E0D8DA9D8B8C8BDB8A1882DEA6A9
:1014000089829A82AB82BC8261E087E00E942B01D4
:10141000DD821E8EDAA68F8E98A2A9A2BAA261E002
:1014200081E05EDCDBA2DF91CF911F910F91FF90F5
:10143000EF90DF90BF90AF909F908F900895809134
:101440004905811103C081E08093490580915705CA
:1014500081112AC081E080935705809158059091B1
:101460005905A0915A05B0915B050197A105B105F9
:10147000D9F480915C058823B9F06CE270E080E0DB
:1014800090E04DDA90935E0580935D0540E050E07A
:10149000BA010EDA6CE270E080E090E040DA9093FE
:1014A0005E0580935D05CEDA80914F0581112AC0DB
:1014B00081E080934F058091500590915105A09156
:1014C0005205B09153050197A105B105D9F480915A
:1014D00054058823B9F06DE270E080E090E01FDAF7
:1014E000909356058093550540E050E0BA01E0D94D
:1014F0006DE270E080E090E012DA90935605809300
:101500005505A0DA80914105811103C081E08093E7
:10151000410580915F05811103C081E080935F05E3
:10152000089560E070E080E89FE7089560E070E073
:1015300080E89FE7089560E070E080E89FEF0895FD
:1015400060E070E080E89FEF089560E070E080EC7C
:101550009FEF089560E070E080EC9FEF0895F5DF65
:1015600060937C0570937D0580937E0590937F0545
:10157000F1DF60937005709371058093720590930D
:101580007305CFDF609378057093790580937A05B2
:1015900090937B05CBDF6093740570937505809302
:1015A000760590937705C7DF60938005709381057A
:1015B0008093820590938305C3DF609384057093C5
:1015C000850580938605909387050895CF92DF92D5
:1015D000EF92FF92CF936B017C01AC019B01609174
:1015E00078057091790580917A0590917B057BD182
:1015F000C1E0882369F0A701960160918005709190
:10160000810580918205909183056DD18111C0E0A3
:101610008C2FCF91FF90EF90DF90CF9008950F9394
:101620001F938B019C010027112720783F7701151C
:10163000110520483F4749F4AB01BC016F7777277C
:1016400081E0452B462B472B09F480E01F910F9139
:101650000895E5CF40E855E260E070E090E080E07A
:1016600006D061E08DE04ED760E08DE087C7813025
:10167000910579F01CF4892B39F008958230910599
:1016800061F0039771F0089526E08DEC92E00C94E0
:10169000B51326E08AE693E0FACF26E087E094E0EF
:1016A000F6CF26E084EA94E0F2CF1F920F920FB6B5
:1016B0000F9211240BB60F922F933F934F935F938A
:1016C0006F937F938F939F93AF93BF93EF93FF930A
:1016D0008BEC93EF90938500809384008091C202FD
:1016E0009091C302019719F461E08DE047D734D09F
:1016F000FF91EF91BF91AF919F918F917F916F91EA
:101700005F914F913F912F910F900BBE0F900FBEA5
:101710000F901F9018958BEC93EF9093850080931A
:101720008400AFE6B0E08C918E7F8C93E0E8F0E02F
:1017300080818C7F8083E1E8F0E08081877E8083F8
:1017400080818460808380818C7F80838C918160A4
:101750008C93089581E008958091C10291E0980FE3
:101760009093C102882349F021E030E03093C30216
:101770002093C2028093C1020895789404DCF89407
:101780008091C1028150F6CFCF93DF9310928905EB
:10179000109288051BD55EDFC0915C02D0915D027E
:1017A00019821882DADDF894B6DF81E02881398168
:1017B000232B09F080E080938805789478948091B9
:1017C0008805811107C03BDEF89490E080E0DF914E
:1017D000CF91089581E028813981232B09F480E09D
:1017E000809389059091890581E0911180E0809333
:1017F0008805B0DFE4CF5058BB27AA270ED012C20D
:1018000003D230F008D220F031F49F3F11F41EF4DF
:10181000F8C10EF4E095E7FBC5C1E92F14D280F3BF
:10182000BA17620773078407950718F071F49EF5DD
:1018300043C20EF4E0950B2EBA2FA02D0B01B90177
:1018400090010C01CA01A0011124FF27591B99F036
:10185000593F50F4503E68F11A16F040A22F232F42
:10186000342F4427585FF3CF469537952795A79592
:10187000F0405395C9F77EF41F16BA0B620B730B39
:10188000840BBAF09150A1F0FF0FBB1F661F771FAA
:10189000881FC2F70EC0BA0F621F731F841F48F45F
:1018A000879577956795B795F7959E3F08F0B3CFE5
:1018B0009395880F08F09927EE0F979587950895CF
:1018C000E4D180F09F3740F491110EF4F6C160E04E
:1018D00070E080E89FE3089526F01B16611D711DDE
:1018E000811D66C180C13AD108F481E008950CD011
:1018F00099C191D140F088D130F021F45F3F19F0C7
:1019000051C15111DAC17DC19ED198F39923C9F318
:101910005523B1F3951B550BBB27AA2762177307F5
:10192000840738F09F5F5F4F220F331F441FAA1FA9
:10193000A9F333D00E2E3AF0E0E830D09150504069
:10194000E695001CCAF729D0FE2F27D0660F771F17
:10195000881FBB1F261737074807AB07B0E809F0F9
:10196000BB0B802DBF01FF2793585F4F2AF09E3F8E
:10197000510568F017C1A1C15F3FECF3983EDCF35D
:10198000869577956795B795F7959F5FC9F7880F07
:10199000911D9695879597F90895E1E0660F771F59
:1019A000881FBB1F621773078407BA0720F0621BEA
:1019B000730B840BBA0BEE1F88F7E095089504D0E3
:1019C0006894B1117AC1089546D188F09F5790F07C
:1019D000B92F9927B751A0F0D1F0660F771F881F54
:1019E000991F1AF0BA95C9F712C0B13081F064D1CD
:1019F000B1E0089561C1672F782F8827B85F39F06B
:101A0000B93FCCF3869577956795B395D9F73EF4B2
:101A100090958095709561957F4F8F4F9F4F08955A
:101A2000E89409C097FB3EF4909580957095619578
:101A30007F4F8F4F9F4F9923A9F0F92F96E9BB272E
:101A40009395F695879577956795B795F111F8CFAA
:101A5000FAF4BB0F11F460FF1BC06F5F7F4F8F4F15
:101A60009F4F16C0882311F096E911C0772321F00B
:101A70009EE8872F762F05C0662371F096E8862FA3
:101A800070E060E02AF09A95660F771F881FDAF7FA
:101A9000880F9695879597F90895F7D080F09F372E
:101AA00040F491110EF009C160E070E080E89FEB16
:101AB000089526F41B16611D711D811D79C093C008
:101AC000A3D018F011F0A7D038F49BC0F6C0E92FCE
:101AD000BAD0B0F35523C9F3E7FB62177307840745
:101AE0009507A8F199F3E92FFF2788232AF031976A
:101AF000660F771F881FDAF7952F5527442332F09A
:101B000091505040220F331F441FD2F7BB27E91BCF
:101B1000F50B621B730B840BB109C1F222F4620F47
:101B2000731F841FB11D31972AF0660F771F881F1E
:101B3000BB1FEFCF915050405AF041F0882332F054
:101B4000660F771F881F91505040C1F793954BC087
:101B50008695779567959F5FD9F7F8CF990F00081D
:101B6000550FAA0BE0E8FEEF16161706E807F9076F
:101B7000C0F012161306E407F50798F0621B730B0A
:101B8000840B950B39F40A2661F0232B242B252B8B
:101B900021F408950A2609F4A140A6958FEF811D2E
:101BA000811D089597F99F6780E870E060E00895CF
:101BB000882371F4772321F09850872B762F07C064
:101BC000662311F499270DC09051862B70E060E0D8
:101BD0002AF09A95660F771F881FDAF7880F969577
:101BE000879597F908959F3F31F0915020F487959C
:101BF00077956795B795880F911D9695879597F975
:101C000008959FEF80EC089500240A941616170695
:101C100018060906089500240A94121613061406DD
:101C200005060895092E0394000C11F4882352F040
:101C3000BB0F40F4BF2B11F460FF04C06F5F7F4FF8
:101C40008F4F9F4F089557FD9058440F551F59F0DF
:101C50005F3F71F04795880F97FB991F61F09F3F99
:101C600079F087950895121613061406551FF2CFC2
:101C70004695F1DF08C0161617061806991FF1CF12
:101C800086957105610508940895E5DFA0F0BEE72B
:101C9000B91788F4BB279F3860F41616B11D672F5B
:101CA000782F8827985FF7CF869577956795B11D30
:101CB00093959639C8F30895E894BB27662777274C
:101CC000CB0197F908954ADF08F48FEF08950BD000
:101CD000A9CF9ADF28F09FDF18F0952309F062CF93
:101CE00090CF1124EACFAFDFA0F3959FD1F3950FEA
:101CF00050E0551F629FF001729FBB27F00DB11D90
:101D0000639FAA27F00DB11DAA1F649F6627B00D1F
:101D1000A11D661F829F2227B00DA11D621F739F08
:101D2000B00DA11D621F839FA00D611D221F749F16
:101D30003327A00D611D231F849F600D211D822F5D
:101D4000762F6A2F11249F5750408AF0E1F08823A4
:101D50004AF0EE0FFF1FBB1F661F771F881F9150B1
:101D60005040A9F79E3F510570F01CCFA6CF5F3FB2
:101D7000ECF3983EDCF3869577956795B795F795E4
:101D8000E7959F5FC1F7FE2B880F911D969587956C
:101D900097F908950895883008F075C0E82FF0E0AD
:101DA000EE0FFF1FE85CFD4F718360838150873029
:101DB00008F03CC0E82FF0E08827EF51F14F8F4F3B
:101DC000B3C71E0FE80EF00EFC0E090F2A0F370FD7
:101DD000809169008C7F482B40936900E89A0895B0
:101DE00080916900837F440F551F440F551F482B76
:101DF00040936900E99A0895809169008F7C74E0AE
:101E0000440F551F7A95E1F7482B40936900EA9AF1
:101E10000895809169008F7366E0440F551F6A959D
:101E2000E1F7482B40936900EB9A089580916A008E
:101E30008C7F482B40936A00EC9A089580916A0049
:101E4000837F440F551F440F551F482B40936A0052
:101E5000ED9A089580916A008F7C24E0440F551F0D
:101E60002A95E1F7482B40936A00EE9A08958091F5
:101E70006A008F7396E0440F551F9A95E1F7482B3F
:101E800040936A00EF9A08951F920F920FB60F9237
:101E900011240BB60F922F933F934F935F936F9341
:101EA0007F938F939F93AF93BF93EF93FF93E091B3
:101EB0003C02F0913D021995FF91EF91BF91AF91D6
:101EC0009F918F917F916F915F914F913F912F9152
:101ED0000F900BBE0F900FBE0F901F9018951F9282
:101EE0000F920FB60F9211240BB60F922F933F93C0
:101EF0004F935F936F937F938F939F93AF93BF9312
:101F0000EF93FF93E0913E02F0913F021995FF910C
:101F1000EF91BF91AF919F918F917F916F915F9161
:101F20004F913F912F910F900BBE0F900FBE0F90CE
:101F30001F9018951F920F920FB60F9211240BB697
:101F40000F922F933F934F935F936F937F938F9352
:101F50009F93AF93BF93EF93FF93E0914002F09173
:101F600041021995FF91EF91BF91AF919F918F9190
:101F70007F916F915F914F913F912F910F900BBE89
:101F80000F900FBE0F901F9018951F920F920FB6D3
:101F90000F9211240BB60F922F933F934F935F93A1
:101FA0006F937F938F939F93AF93BF93EF93FF9321
:101FB000E0914202F09143021995FF91EF91BF9198
:101FC000AF919F918F917F916F915F914F913F91D1
:101FD0002F910F900BBE0F900FBE0F901F90189572
:101FE0001F920F920FB60F9211240BB60F922F93E0
:101FF0003F934F935F936F937F938F939F93AF9391
:10200000BF93EF93FF93E0913802F0913902199555
:10201000FF91EF91BF91AF919F918F917F916F91C0
:102020005F914F913F912F910F900BBE0F900FBE7C
:102030000F901F9018951F920F920FB60F921124B8
:102040000BB60F922F933F934F935F936F937F93B2
:102050008F939F93AF93BF93EF93FF93E0913A02D7
:10206000F0913B021995FF91EF91BF91AF919F9134
:102070008F917F916F915F914F913F912F910F9031
:102080000BBE0F900FBE0F901F9018951F920F92CE
:102090000FB60F9211240BB60F922F933F934F93CD
:1020A0005F936F937F938F939F93AF93BF93EF93C0
:1020B000FF93E0914402F09145021995FF91EF9151
:1020C000BF91AF919F918F917F916F915F914F9150
:1020D0003F912F910F900BBE0F900FBE0F901F904E
:1020E00018951F920F920FB60F9211240BB60F92F4
:1020F0002F933F934F935F936F937F938F939F9310
:10210000AF93BF93EF93FF93E0914602F0914702A4
:102110001995FF91EF91BF91AF919F918F917F9111
:102120006F915F914F913F912F910F900BBE0F9048
:102130000FBE0F901F9018951F920F920FB60F921F
:1021400011242F933F938F939F93AF93BF938091CD
:10215000C5029091C602A091C702B091C802309109
:10216000C40223E0230F2D3758F50196A11DB11DA0
:102170002093C4028093C5029093C602A093C70225
:10218000B093C8028091C9029091CA02A091CB027B
:10219000B091CC020196A11DB11D8093C90290930C
:1021A000CA02A093CB02B093CC02BF91AF919F9192
:1021B0008F913F912F910F900FBE0F901F90189508
:1021C00026E8230F0296A11DB11DD2CF789484B5C5
:1021D000826084BD84B5816084BD85B5826085BD23
:1021E00085B5816085BDEEE6F0E080818160808309
:1021F000E1E8F0E0108280818260808380818160EC
:102200008083E0E8F0E0808181608083E1EBF0E0B2
:10221000808184608083E0EBF0E080818160808356
:10222000E1E9F0E080818260808380818160808349
:10223000E0E9F0E0808181608083E1EAF0E0808184
:1022400082608083808181608083E0EAF0E0808129
:1022500081608083E1E2F1E080818260808380811F
:1022600081608083E0E2F1E0808181608083EAE741
:10227000F0E08081846080838081826080838081BF
:10228000816080838081806880831092C10008957E
:102290001F93CF93DF93182FEB0161E033D1209789
:1022A00031F460E0812FDF91CF911F9167C1CF3F63
:1022B000D10511F461E0F6CFE12FF0E0EC51FF4FD2
:1022C000E491E150E23108F0B2C0F0E08827E5592E
:1022D000FE4E8F4F29C57D1185118A1194119E11D3
:1022E0001712A811B011B811C211CC11D611E511F5
:1022F000EF111712F91103120D1284B5806884BD15
:10230000C7BDDF91CF911F91089584B5806284BDD0
:10231000C8BDF7CF80918000806880938000D09303
:102320008900C0938800EDCF809180008062809307
:102330008000D0938B00C0938A00E3CF809180000F
:10234000886080938000D0938D00C0938C00D9CF9B
:102350008091B00080688093B000C093B300D1CF6B
:102360008091B00080628093B000C093B400C9CF68
:1023700080919000806880939000D0939900C093E2
:102380009800BFCF80919000806280939000D0939E
:102390009B00C0939A00B5CF809190008860809395
:1023A0009000D0939D00C0939C00ABCF8091A00083
:1023B00080688093A0008091A0008F7B8093A00014
:1023C000D093A900C093A8009CCF8091A000806208
:1023D0008093A000D093AB00C093AA0092CF8091CD
:1023E000A00088608093A000D093AD00C093AC00A3
:1023F00088CF80912001806880932001D0932901AB
:10240000C09328017ECF80912001806280932001BB
:10241000D0932B01C0932A0174CF80912001886052
:1024200080932001D0932D01C0932C016ACFC03836
:10243000D1050CF03FCF35CF8150823108F059C023
:10244000E82FF0E08827E95DFD4E8F4F6DC44712FD
:102450004B1239123F12431279124E125412581273
:102460005E12621266126C127012791274127A1273
:102470007E12809180008F778093800008958091F4
:1024800080008F7DF9CF80918000877FF5CF84B564
:102490008F7784BD089584B58F7DFBCF8091B00088
:1024A0008F778093B00008958091B0008F7DF9CF31
:1024B000809190008F778093900008958091900094
:1024C0008F7DF9CF80919000877FF5CF8091A0001C
:1024D0008F778093A00008958091A0008F7DF9CF21
:1024E0008091A000877FF5CF809120018F77809326
:1024F00020010895809120018F7DF9CF80912001E6
:10250000877FF5CFCF93DF9390E0FC01E65DFE4F30
:10251000249180599E4FFC0184918823C9F090E05A
:10252000880F991FFC01E053FE4FA591B491FC0167
:10253000EA54FE4FC591D49161110DC09FB7F89434
:102540008C91209582238C938881282328839FBF98
:10255000DF91CF910895623051F49FB7F8943C9188
:10256000822F809583238C93E8812E2BEFCF8FB71A
:10257000F894EC912E2B2C938FBFEACF1F93CF931F
:10258000DF93282F30E0F901EC51FF4F8491F901DE
:10259000E65DFE4FD491F901E059FE4FC491CC2382
:1025A000A1F0162F811148DFEC2FF0E0EE0FFF1F96
:1025B000EA54FE4FA591B4918FB7F894EC911111A4
:1025C00008C0D095DE23DC938FBFDF91CF911F91A0
:1025D0000895DE2BF8CFFC01918D228D892F90E09C
:1025E000805C9F4F821B91098F7399270895FC018E
:1025F000918D828D981731F0828DE80FF11D858DB8
:1026000090E008958FEF9FEF0895FC01918D828DEA
:10261000981761F0A28DAE0FBF2FB11D5D968C9102
:10262000928D9F5F9F73928F90E008958FEF9FEF41
:102630000895FC01538D448D252F30E0842F90E0C8
:10264000821B930B541710F0CF96089501970895AD
:10265000FC01A48DA80FB92FB11DA35ABF4F2C9117
:10266000848D90E001968F739927848FA689B7890E
:102670002C93A089B1898C91837080648C93938D05
:10268000848D981306C00288F389E02D80818F7DA8
:1026900080830895CF93DF93EC01888D8823B1F078
:1026A000AA89BB89E889F9898C9185FD03C080815D
:1026B00086FD0CC00FB607FCF7CF8C9185FFF2CFDB
:1026C000808185FFEDCFCE01C3DFEACFDF91CF91CF
:1026D0000895EF92FF920F931F93CF93DF93EC0136
:1026E00081E0888F9B8D8C8D98131AC0E889F989B9
:1026F000808185FF15C09FB7F894EE89FF896083BC
:10270000E889F98980818370806480839FBF81E03C
:1027100090E0DF91CF911F910F91FF90EF9008957E
:10272000F62E0B8D10E00F5F1F4F0F731127E02E59
:102730008C8D8E110BC00FB607FCFACFE889F98992
:10274000808185FFF5CFCE0183DFF2CFEB8DEC0FDB
:10275000FD2FF11DE35AFF4FF0829FB7F8940B8FC6
:10276000EA89FB8980818062D0CFCF92DF92EF929D
:10277000FF921F93CF93DF93EC016A017B01122F2D
:10278000E889F98982E08083C11481EED806E104EA
:10279000F10499F060E079E08DE390E0A701960103
:1027A000A1D22150310941095109569547953795D4
:1027B0002795211580E1380790F0E889F989108282
:1027C00060E874E88EE190E0A70196018BD2215079
:1027D0003109410951095695479537952795EC855B
:1027E000FD853083EE85FF852083188EEC89FD8979
:1027F0001083EA89FB89808180618083EA89FB8973
:10280000808188608083EA89FB89808180688083F9
:10281000EA89FB8980818F7D8083DF91CF911F9131
:10282000FF90EF90DF90CF9008951F920F920FB618
:102830000F9211240BB60F922F938F939F93EF93C8
:10284000FF93E091DD02F091DE028081E091E302EE
:10285000F091E40282FD1DC090818091E6028F5FBD
:102860008F732091E702821741F0E091E602F0E0D9
:10287000E353FD4F958F8093E602FF91EF919F9177
:102880008F912F910F900BBE0F900FBE0F901F9046
:1028900018958081F2CF1F920F920FB60F921124DC
:1028A0000BB60F922F933F934F935F936F937F934A
:1028B0008F939F93AF93BF93EF93FF938DEC92E031
:1028C000C7DEFF91EF91BF91AF919F918F917F9163
:1028D0006F915F914F913F912F910F900BBE0F9091
:1028E0000FBE0F901F901895EDECF2E0138212824C
:1028F00088EE93E0A0E0B0E084839583A683B7835D
:1029000082E692E09183808385EC90E095878487CE
:1029100084EC90E09787868780EC90E0918B808BA9
:1029200081EC90E0938B828B82EC90E0958B848B92
:1029300086EC90E0978B868B118E128E138E148E00
:1029400008951F920F920FB60F9211240BB60F929B
:102950002F938F939F93EF93FF93E0917A03F091DE
:102960007B038081E0918003F091810382FD1DC093
:102970009081809183038F5F8F73209184038217EE
:1029800041F0E0918303F0E0E659FC4F958F80938E
:102990008303FF91EF919F918F912F910F900BBE29
:1029A0000F900FBE0F901F9018958081F2CF1F924D
:1029B0000F920FB60F9211240BB60F922F933F93E5
:1029C0004F935F936F937F938F939F93AF93BF9337
:1029D000EF93FF938AE693E03BDEFF91EF91BF9187
:1029E000AF919F918F917F916F915F914F913F91A7
:1029F0002F910F900BBE0F900FBE0F901F90189548
:102A0000EAE6F3E01382128288EE93E0A0E0B0E001
:102A100084839583A683B78382E692E09183808343
:102A20008DEC90E0958784878CEC90E09787868783
:102A300088EC90E0918B808B89EC90E0938B828B7B
:102A40008AEC90E0958B848B8EEC90E0978B868B54
:102A5000118E128E138E148E08951F920F920FB640
:102A60000F9211240BB60F922F938F939F93EF9396
:102A7000FF93E0911704F09118048081E0911D0408
:102A8000F0911E0482FD1DC09081809120048F5F13
:102A90008F7320912104821741F0E0912004F0E02F
:102AA000E95FFB4F958F80932004FF91EF919F91F9
:102AB0008F912F910F900BBE0F900FBE0F901F9014
:102AC00018958081F2CF1F920F920FB60F921124AA
:102AD0000BB60F922F933F934F935F936F937F9318
:102AE0008F939F93AF93BF93EF93FF9387E094E00F
:102AF000AFDDFF91EF91BF91AF919F918F917F914A
:102B00006F915F914F913F912F910F900BBE0F905E
:102B10000FBE0F901F901895E7E0F4E01382128229
:102B200088EE93E0A0E0B0E084839583A683B7832A
:102B300082E692E09183808385ED90E0958784879B
:102B400084ED90E09787868780ED90E0918B808B75
:102B500081ED90E0938B828B82ED90E0958B848B5E
:102B600086ED90E0978B868B118E128E138E148ECD
:102B700008951F920F920FB60F9211240BB60F9269
:102B80002F938F939F93EF93FF93E091B404F09171
:102B9000B5048081E091BA04F091BB0482FD1DC0B0
:102BA00090818091BD048F5F8F732091BE04821746
:102BB00041F0E091BD04F0E0EC55FB4F958F809320
:102BC000BD04FF91EF919F918F912F910F900BBEBC
:102BD0000F900FBE0F901F9018958081F2CF1F921B
:102BE0000F920FB60F9211240BB60F922F933F93B3
:102BF0004F935F936F937F938F939F93AF93BF9305
:102C0000EF93FF9384EA94E023DDFF91EF91BF916E
:102C1000AF919F918F917F916F915F914F913F9174
:102C20002F910F900BBE0F900FBE0F901F90189515
:102C3000E4EAF4E01382128288EE93E0A0E0B0E0D0
:102C400084839583A683B78382E692E09183808311
:102C500085E391E09587848784E391E09787868771
:102C600080E391E0918B808B81E391E0938B828B69
:102C700082E391E0958B848B86E391E0978B868B42
:102C8000118E128E138E148E0895AF92BF92CF9232
:102C9000DF92EF92FF920F931F93CF93DF936C011C
:102CA0007B018B01040F151FEB015E01AE18BF08FD
:102CB000C017D10759F06991D601ED91FC910190AF
:102CC000F081E02DC6011995892B79F7C501DF91B7
:102CD000CF911F910F91FF90EF90DF90CF90BF9019
:102CE000AF900895A1E21A2EAA1BBB1BFD010DC0D7
:102CF000AA1FBB1FEE1FFF1FA217B307E407F507AC
:102D000020F0A21BB30BE40BF50B661F771F881F87
:102D1000991F1A9469F760957095809590959B011D
:102D2000AC01BD01CF010895EE0FFF1F881F8BBFBF
:0C2D30000790F691E02D1994F894FFCF65
:102D3C00000080400000404100007F43C3F5484044
:102D4C00000048430000C842000000009E2B3B3CA2
:102D5C000000803F0000803F00007F430000000027
:102D6C000000A04000000000CA0ECA0ECA0ECA0E17
:102D7C00CA0ECA0ECA0ECA0E0001FFFF0607FFFFDD
:102D8C00FFFFFFFFFFFFFFFF05040302BF02000070
:102D9C0000006913451619134A13EB120513F712A9
:00000001FF
