:1000000086C100000C948D2A0C94B82A0C94E32A23
:100010000C940E2B0C94392B0C94642B0C948F2B7A
:100020000C94BA2BA5C10000A3C10000A1C100001F
:100030009FC100009DC100009BC1000099C100004C
:1000400097C1000095C1000093C1000091C100005C
:100050008FC100008DC100008BC100000C94E52B06
:1000600087C100000C94E12F0C94173081C100006F
:100070007FC100007DC100007BC1000079C100008C
:1000800077C1000075C1000073C1000071C100009C
:100090000C946D300C94A3306BC100000C94F128CB
:1000A00067C1000065C1000063C1000061C10000BC
:1000B0005FC100005DC100005BC1000059C10000CC
:1000C00057C1000055C100000C94DF180C94F930A2
:1000D0000C942F314DC100000C9485310C94BB3130
:1000E00047C10000001D3A2774694E53E8F5D2CF8E
:1000F0009C81A6BBCDD0F7EAB9A4839E25381F0208
:10010000514C6B76879ABDA0F3EEC9D46F725548F7
:100110001B06213C4A57706D3E230419A2BF9885E7
:10012000D6CBECF1130E2934677A5D40FBE6C1DCD7
:100130008F92B5A8DEC3E4F9AAB7908D362B0C11C7
:10014000425F78659489AEB3E0FDDAC77C61465BB7
:100150000815322F5944637E2D30170AB1AC8B96A7
:10016000C5D8FFE2263B1C01524F6875CED3F4E997
:10017000BAA7809DEBF6D1CC9F82A5B8031E392487
:10018000776A4D50A1BC9B86D5C8EFF24954736E77
:100190003D20071A6C71564B1805223F8499BEA367
:1001A000F0EDCAD735280F12415C7B66DDC0E7FA57
:1001B000A9B4938EF8E5C2DF8C91B6AB100D2A3747
:1001C00064795E43B2AF8895C6DBFCE15A47607D37
:1001D0002E3314097F6245580B16312C978AADB027
:1001E000E3FED9C400000A0B02090C0D0E08070338
:1001F00004010000000000000000000000000000FA
:1002000000000000000000000000000000000000EE
:1002100012111000000000000000000000000000AB
:100220000000000000000000000001021020200873
:100230000810204010204080020102010804020141
:1002400001020408102040808040201008040201B0
:100250008004020180402010080402010804020109
:100260000102040810204080010204081020408090
:1002700005050505070508080808020202020A0A22
:100280000808040404040101010101010101030340
:10029000030303030303040707070C0C0C0C0C0CEB
:1002A0000C0C0202020206060606060606060B0BE8
:1002B0000B0B0B0B0B0B000020002300260029006A
:1002C0002C002F003200000100000301060109018B
:1002D00000002200250028002B002E0031003400F1
:1002E00002010000050108010B01000021002400AB
:1002F00027002A002D003000330001010000040116
:1003000007010A01A9284030CC305831E4311124CA
:100310001FBECFEFD1E2DEBFCDBF00E00CBF14E0C7
:10032000A0E0B2E0E4EDF7E600E00BBF02C007900A
:100330000D92A839B107D9F729E0A8E9B4E001C0C6
:100340001D92A03CB207E1F711E0C7E8D1E000E060
:1003500006C021970109802FFE010E947432C23825
:10036000D10780E00807A9F70E940A250C94E8331A
:1003700047CE611102C00C94262E6130E1F362E099
:10038000FACF662319F061E00C94622E60E0FCCF96
:100390000E948F2E21E0019709F020E0822F08951E
:1003A0000C942F2C0895CF92DF92EF92FF92CF936F
:1003B000882351F16A017B01CFEFC80F20E030E0C4
:1003C000A901CB01B6010E94192687FF11C0C70100
:1003D000B60190580E948A269B01AC016C2F70E0F8
:1003E00090E080E0CF91FF90EF90DF90CF90B2C08F
:1003F000C701B6010E9485268C2FCF91FF90EF9008
:10040000DF90CF900C94EC2CCF91FF90EF90DF9089
:10041000CF9008950F931F938B019C0183E0369535
:100420002795179507958A95D1F708561B4F462FA4
:10043000477021E030E0F90102C0EE0FFF1F4A953E
:10044000E2F7AF01F80120812423CB0101962111AD
:1004500002C090E080E01F910F9108950F931F93C9
:100460008B019C0183E036952795179507958A9512
:10047000D1F7677081E090E001C0880F6A95EAF7D4
:10048000F801E856FB4F2081452B31F480958223FB
:1004900080831F910F910895822BFACF2F923F9264
:1004A0004F925F926F927F928F929F92AF92BF9284
:1004B000CF92DF92EF92FF920F931F93CF93DF9330
:1004C000D62EC72E782E692E49015A01280161E0E7
:1004D0008D2D0E94262ECD2DDC2D8E010F5F1F4FFE
:1004E000A8016D2D7C2D872D962DB8DF20E030E002
:1004F000A901C201B7010E94BB27181664F4C2010A
:10050000B7010E948A262B01C501B4010E948A26E8
:10051000A201CE0123D0C801DF91CF911F910F918D
:10052000FF90EF90DF90CF90BF90AF909F908F9013
:100530007F906F905F904F903F902F900895882309
:1005400041F08150682F70E090E080E050E040E0A2
:1005500085CF0895862FB9010C94EC2C9C01FC01E9
:10056000EC51FE4FE491E150E231E0F4F0E08827F5
:10057000E354FD4F8F4F0C947432CF02D602D90250
:10058000F0020503D2021A0326032A03410356038D
:100590006B0382039703D202AC03C303D80384B571
:1005A000806884BD60E0822F0C94622E84B58062E6
:1005B000F8CF809180008C7F826080938000809152
:1005C0008100807E8061682B60938100509387005A
:1005D0004093860080918000806880938000E2CF05
:1005E000809180008C7F8260809380008091810068
:1005F000807E8061682B60938100509387004093D8
:100600008600809180008062E8CF809180008C7F9E
:1006100082608093800080918100807E8061682B61
:100620006093810050938700409386008091800002
:100630008860D3CF8091B00080688093B0008091B3
:10064000B100887F682B6093B100ACCF8091B0007F
:100650008062F3CF809190008C7F826080939000C5
:1006600080919100807E8061682B6093910050930F
:10067000970040939600809190008068809390004E
:1006800091CF809190008C7F8260809390008091C8
:100690009100807E8061682B609391005093970059
:1006A00040939600809190008062E8CF8091900006
:1006B0008C7F82608093900080919100807E806129
:1006C000682B60939100509397004093960080911F
:1006D00090008860D3CF8091A0008C7F826080934F
:1006E000A0008091A100807E8061682B6093A100B2
:1006F0005093A7004093A6008091A000806880934B
:10070000A00050CF8091A0008C7F82608093A000D9
:100710008091A100807E8061682B6093A10050933E
:10072000A7004093A6008091A0008062E8CF80914E
:10073000A0008C7F82608093A0008091A100807EC9
:100740008061682B6093A1005093A7004093A6009E
:100750008091A0008860D3CF809120018C7F82603F
:100760008093200180912101807E8061682B6093BD
:100770002101509327014093260180912001806838
:10078000809320010FCF809120018C7F8260809325
:10079000200180912101807E8061682B609321017E
:1007A0005093270140932601809120018062E8CF79
:1007B000809120018C7F82608093200180912101B3
:1007C000807E8061682B60932101509327014093C4
:1007D0002601809120018860D3CF60E070E080E83E
:1007E0009FE7089560E070E080E89FE7089560E08B
:1007F00070E080E89FEF089560E070E080E89FEF90
:10080000089560E070E080EC9FEF089560E070E094
:1008100080EC9FEF0895F5DF609320097093210924
:100820008093220990932309F1DF60931409709358
:1008300015098093160990931709CFDF60931C095F
:1008400070931D0980931E0990931F09CBDF60935D
:1008500018097093190980931A0990931B09C7DF2F
:1008600060932409709325098093260990932709A2
:10087000C3DF609328097093290980932A09909314
:100880002B090895CF92DF92EF92FF928091B909E0
:1008900081508230A0F483E08093B9098091B2093D
:1008A0008150823070F483E08093B20980910A0510
:1008B000882349F0813059F080910B0505C080E014
:1008C000EBCF80E0F1CF81E08093090502C0109268
:1008D0000905E091090524E0E29FF0011124E552A9
:1008E000FB4F81A992A9A3A9B4A980930105909374
:1008F0000205A0930305B093040581AD92ADA3ADAD
:10090000B4AD8093050590930605A0930705B093B9
:1009100008058FEF80930905C090EA02D090EB02A2
:10092000E090EC02F090ED02A7019601609154096D
:100930007091550980915609909157090E94192686
:10094000882341F0C0925409D0925509E09256098B
:10095000F092570925DD6093A6097093A70980934B
:10096000A8099093A909C090AA09D090AB09E0907A
:10097000AC09F090AD099B01AC012C193D094E0961
:100980005F0969017A01C092A209D092A309E0929D
:10099000A409F092A5096093AA097093AB0980930A
:1009A000AC099093AD09C090E602D090E702E090C8
:1009B000E802F090E902A701960160914C0970915C
:1009C0004D0980914E0990914F090E941926882364
:1009D00041F0C0924C09D0924D09E0924E09F0923C
:1009E0004F0983E0D5DC811118C08091620390919A
:1009F0006303A0916403B091650380939C09909375
:100A00009D09A0939E09B0939F0984E08093B20949
:100A1000FF90EF90DF90CF90089580915E039091CA
:100A20005F03A0916003B0916103E7CFCF92DF92A3
:100A3000EF92FF926B017C019F7720E030E040E86D
:100A400059E50E94192687FF2BC020E030E040E0E6
:100A50005FE3C701B6010E94BB2787FD0EC020E0FF
:100A600030E040E05FE3C701B6010E94A225FF909D
:100A7000EF90DF90CF900C94F32620E030E040E040
:100A80005FEBC701B6010E94BB27181684F420E073
:100A900030E0A901C701B6010E94BF276B017C01AC
:100AA000C701B601FF90EF90DF90CF90089520E04E
:100AB00030E040E05FE3C701B6010E94A125FF904E
:100AC000EF90DF90CF900C9406264F925F926F923A
:100AD0007F928F929F92AF92BF92CF92DF92EF92CE
:100AE000FF92CF93DF9300D000D01F921F92CDB71B
:100AF000DEB78091B1098150823008F4D1C280E024
:100B00008093B1098091B0098150823008F4CAC243
:100B100080E08093B0098091AF098150823008F461
:100B2000C3C280E08093AF099091AE09915092309A
:100B300008F4BCC2198239813093AE09209198091A
:100B40003091990940919A0950919B092D833E83D8
:100B50004F8358874090A2095090A3096090A40940
:100B60007090A50940924009509241096092420953
:100B700070924309411451046104710409F09BC24D
:100B80004091FE025091FF026091000370910103B9
:100B900040932C0950932D0960932E0970932F09CF
:100BA000882309F486C2833009F481E08093AF0979
:100BB000C0902C09D0902D09E0902E09F0902F09BB
:100BC000C0927C09D0927D09E0927E09F0927F0963
:100BD000A7019601609102037091030380910403C1
:100BE000909105030E94A1254B015C01209174099D
:100BF0003091750940917609509177090E94A2259C
:100C000069837A838B839C836093800970938109C5
:100C10008093820990938309C0929009D0929109A0
:100C2000E0929209F0929309A7019601C701B601DB
:100C30000E94A2256B017C01C301B2010E94B6266D
:100C40009B01AC01C701B6010E941D266B017C010E
:100C5000C0927809D0927909E0927A09F0927B09E2
:100C600080928C0990928D09A0928E09B0928F0982
:100C700020910A0330910B0340910C0350910D0316
:100C800069817A818B819C810E94BF272B013C0165
:100C900020910E0330910F034091100350911103E6
:100CA000C701B6010E94BF279B01AC01C301B2017D
:100CB0000E94A2256B017C01209112033091130345
:100CC0004091140350911503C501B4010E94BF2740
:100CD0009B01AC01C701B6010E94A2256B017C01FA
:100CE000C0923009D0923109E0923209F092330972
:100CF00040901603509017036090180370901903EA
:100D0000A30192010E94BB2718160CF014C2409256
:100D10003409509235096092360970923709609112
:100D200034097091350980913609909137096093A3
:100D300098097093990980939A0990939B0920E0F0
:100D400030E0A9010E94BB2718160CF014C2809154
:100D5000EE029091EF02A091F002B091F102809327
:100D6000880990938909A0938A09B0938B0980918F
:100D7000F2029091F302A091F402B091F5028093F7
:100D8000840990938509A0938609B093870980917F
:100D9000B109882309F4ECC1833009F0E5C181E091
:100DA00090E08093B10960918409709185098091E8
:100DB0008609909187093ADE6B017C0120E030E0E2
:100DC00040E853E40E9419266FEF87FF0EC020E031
:100DD00030E0A901C701B6010E94BB2760E087FD92
:100DE00004C0C701B6010E948A2687E0CADA609172
:100DF00088097091890980918A0990918B0916DE82
:100E00006B017C0120E030E040E853E40E941926A9
:100E10006FEF87FF0EC020E030E0A901C701B601E7
:100E20000E94BB2760E087FD04C0C701B6010E9495
:100E30008A2686E0A6DA6D817E818F8198859F77EC
:100E4000609338097093390980933A0990933B096C
:100E500020911E0330911F034091200350912103E4
:100E60000E94BF276B017C01C0923C09D0923D09D2
:100E7000E0923E09F0923F09C0929409D092950900
:100E8000E0929609F092970920E030E04FE753E4B2
:100E90000E94192687FD06C0C12CD12C8FE7E82EB1
:100EA00083E4F82E60916009709161098091620974
:100EB00090916309AFDA3C0190935F0980935E09DA
:100EC00020E030E0A901C701B6010E94BB27181637
:100ED0001CF0C12CD12C760120E030E04FEF55E41E
:100EE000C701B6010E94BF2720E030E04FE753E47E
:100EF0000E941D26AB01BC017058C30154DA8092D8
:100F0000740990927509A0927609B092770981E0F0
:100F100090E00E9469184091F1045091F2046091B0
:100F2000F3047091F40490E080E00E9465188090D2
:100F30001C0590901D05A0901E05B0901F0520E097
:100F400030E040E85FEBC501B4010E941926882318
:100F500031F1C090F104D090F204E090F304F090ED
:100F6000F404A7019601C501B4010E94A1254B011B
:100F70005C0120E030E040E054E3C701B6010E948C
:100F8000BF279B01AC01C501B4010E94BB27181605
:100F900034F08AE793E09093DC048093DB04809143
:100FA0002005882331F08AE793E09093DC04809356
:100FB000DB04C090F504D090F604E090F704F090C4
:100FC000F8049FEFC91AD90AE90AF90AC092F50490
:100FD000D092F604E092F704F092F804C114D10420
:100FE000E104F10499F48091F9049091FA04A0913C
:100FF000FB04B091FC040196A11DB11D8093F9047E
:101000009093FA04A093FB04B093FC048090FD0439
:101010009090FE04A090FF04B09000054090F90469
:101020005090FA046090FB047090FC04C301B2017C
:101030000E94B626A50194010E94BF2720E030E05F
:1010400040E85FE40E94BF2769837A838B839C8397
:10105000C701B6010E94B626A50194010E94BF27D0
:101060009B01AC0169817A818B819C810E94A225C0
:101070006093F1047093F2048093F3049093F4046A
:1010800080910905882309F4A8C0813009F4A9C01A
:1010900081E090910B05992309F4A0C080E09EC0E7
:1010A00083E02ECD83E035CD83E03CCD23E0298362
:1010B00042CD82E07BCD60914A0370914B038091D9
:1010C0004C0390914D030E94B62620E030E040E0B2
:1010D00056E30E94BF276B017C0160E070E080E076
:1010E00090E8A30192010E945232CA01B9010E9404
:1010F000B62620E030E040E050E30E94BF279B018D
:10110000AC01C701B6010E94BF2760932C09709300
:101110002D0980932E0990932F093981332341F0B3
:10112000333011F441E0498389818093AE0940CD89
:1011300052E05983F9CF40901A0350901B036090FE
:101140001C0370901D03A3019201C701B6010E9408
:10115000192687FDDCCDC0923409D0923509E09282
:101160003609F0923709DBCD082E000C990B19CE09
:1011700082E090E016CE8091F6029091F702A09165
:10118000F802B091F9028093840990938509A093A5
:101190008609B09387098091FA029091FB02A09191
:1011A000FC02B091FD028093880990938909A09375
:1011B0008A09B0938B098091B009882359F0833054
:1011C00029F481E090E08093B009EDCD082E000C69
:1011D000990BF9CF82E090E0F6CF81E080930A0589
:1011E00002C010920A0580910A05A4E08A9FF001CE
:1011F0001124E552FB4FC1AAD2AAE3AAF4AA41AE38
:1012000052AE63AE74AE80930B058FEF80930A05E8
:1012100028960FB6F894DEBF0FBECDBFDF91CF91F9
:10122000FF90EF90DF90CF90BF90AF909F908F9006
:101230007F906F905F904F9008954F925F926F9262
:101240007F928F929F92BF92CF92DF92EF92FF9206
:101250000F931F93CF93DF9384E090E0DCDA86EE68
:10126000882E82E0982E80911C0990911D09A091F2
:101270001E09B0911F09F40184839583A683B78367
:101280009BEDC92E94E0D92E86E4D6011D928A9555
:10129000E9F780E090E0A0E8BFEB80931C05909315
:1012A0001D05A0931E05B0931F058DEC9CECACE4CE
:1012B000BEE3F60182A393A3A4A3B5A383ED97ECA9
:1012C000A6E1B3E384839583A683B7838DED98E786
:1012D000A4EABAE480879187A287B38786EF98EE65
:1012E000A1E1BEE784879587A687B78789E398E958
:1012F000A0ECB3E6808B918BA28BB38BAFECB4E008
:10130000B383A283E5EBF4E01196FC93EE938EE8B1
:1013100093E09183808322EB39E03383228349EB8E
:1013200059E05583448348EB59E05783468331871E
:10133000208733872287958784879787868721EB45
:1013400039E0318B208B20EB39E0338B228B2EEA76
:1013500039E0358B248B2FEA39E0378B268B918F40
:10136000808F8FEE94E015969C938E9314978FED5B
:1013700094E013969C938E93129781EF94E01796C6
:101380009C938E931697ECE2F9E088E1DF011D92C1
:101390008A95E9F7C4E4D9E086E7FE0111928A95BF
:1013A000E9F7EBEAF4E08AE0DF011D928A95E9F7BC
:1013B000E1EAF4E0D6015596FC93EE93549784E16C
:1013C00090E0918380838EEB92E09383828386E921
:1013D00092E0958384838AE292E09783868386E015
:1013E00092E091878087BB24B394B092B509412CD9
:1013F000512C3201439449A65AA66BA67CA661E003
:1014000087E00E94B901BDA618A2B092B4091DA23E
:1014100049A25AA26BA27CA261E086E00E94B901B7
:10142000BDA21C8AB092B3098BE090E0A0E0B0E0CE
:101430008C8F9D8FAE8FBF8F198E4D8A5E8A6F8A7B
:10144000788EE12CF12C0FEF15E420E030E040E83D
:101450005FE36BE070E080E090E020D89B8F8A8FA4
:101460006C8D7D8D8E8D9F8D0E940A029B8F8A8F41
:101470000E94D201B98EB092B609F401848195819F
:10148000A681B781888B998BAA8BBB8B4C865D8696
:101490006E867F861882B092B70980819181A28181
:1014A000B38188879987AA87BB8749825A826B82D2
:1014B0007C8260E083E00E94B901BD8243E050E09D
:1014C00062E474E083E00E94132AF40184AD95ADD8
:1014D000A6ADB7AD8CAB9DABAEABBFAB80912603D9
:1014E00090912703A0912803B091290388AF99AF69
:1014F000AAAFBBAF80912A0390912B03A0912C033C
:10150000B0912D038CAF9DAFAEAFBFAF80912E03D6
:1015100090912F03A0913003B091310380938409FF
:1015200090938509A0938609B0938709809132032F
:1015300090913303A0913403B091350380938809CF
:1015400090938909A0938A09B0938B0980913603FF
:1015500090913703A0913803B091390380938C099F
:1015600090938D09A0938E09B0938F0980913A03CF
:1015700090913B03A0913C03B0913D03809390096F
:1015800090939109A0939209B093930980913E039F
:1015900090913F03A0914003B0914103809394093F
:1015A00090939509A0939609B0939709809152035F
:1015B00090915303A0915403B09155038093A209D5
:1015C0009093A309A093A409B093A5098091420325
:1015D00090914303A0914403B091450380939809EF
:1015E00090939909A0939A09B0939B09809156030F
:1015F00090915703A0915803B09159038093A60985
:101600009093A709A093A809B093A90980914603D4
:1016100090914703A0914803B091490380939C099E
:1016200090939D09A0939E09B0939F0980915A03BE
:1016300090915B03A0915C03B0915D038093AA0934
:101640009093AB09A093AC09B093AD098FEFD6018D
:101650009E968C939E979F968C939F97D0961C9264
:1016600080A191A1A2A1B3A188AB99ABAAABBBAB5E
:10167000DF91CF911F910F91FF90EF90DF90CF906E
:10168000BF909F908F907F906F905F904F90089544
:1016900080916C09811103C081E080936C09809175
:1016A0006409811103C081E0809364098091580925
:1016B000811137C081E08093580980915909909138
:1016C0005A09A0915B09B0915C090197A105B10588
:1016D00041F580915D09882321F160916009709145
:1016E000610980916209909163090E940A029093B6
:1016F0005F0980935E0940E050E060E070E80E947E
:10170000D3016091600970916109809162099091A3
:1017100063090E940A0290935F0980935E090E9408
:101720009F0280914409811103C081E080934409A4
:101730000895EF92FF920F931F93CF93DF93EA01E7
:10174000F901DC011496ED90FC90159712964D91DD
:101750005C9113974E0D5F1D2881398118960D916C
:101760001C9119970217130730F00D911C911197D6
:10177000012B09F441C08A01021B130BDC011896EE
:101780008D919C918E199F09800F911F8617970745
:10179000DCF1C901860F971F8417950778F47183D0
:1017A0006083338322831582148217821682888194
:1017B0009981680F791F7983688316C0118300832C
:1017C00033832283601B710B7583648390E080E018
:1017D0001616170614F49E2D8F2D96838783D70136
:1017E000A60FB71FB983A88380E0DF91CF911F9127
:1017F0000F91FF90EF90089518968D919C91821B08
:10180000930B861797075CF681E0EFCFCF92DF92BC
:10181000EF92FF92CF93DF936B0184E4869FE00108
:10182000879FD00D1124CF5DDA4F8AA99BA900971D
:1018300021F00E9446331BAA1AAA84E48C9DF00171
:101840008D9DF00D1124EF5DFA4F86A997A90097A1
:1018500011F00E94463384E48C9DF0018D9DF00DC3
:101860001124EF5DFA4F138A128A168A178A108E96
:10187000118E128E138E148E158E168E178E10A248
:1018800011A281E090E093A382A315A214A216A254
:1018900017A210A611A613A612A615A614A616A680
:1018A00017A610AA11AA13AA12AA15AA14AA17AA4F
:1018B00016AA11AE10AE12AE13AE14AE15AEDF0105
:1018C000DE961D921D921D921C921397EE5BFF4FA8
:1018D00011821082DF91CF91FF90EF90DF90CF9037
:1018E0000895CF93DF93FB01DC016D917C91DB01C7
:1018F0001696CD91DC918081918123E0880F991F0C
:101900002A95E1F7AA81BB81A80FB91F8D919C91FF
:10191000119724853585220F331FEB016A817B8166
:10192000EB01C20FD31F0990D881C02D14962D91C1
:101930003C9161E070E0232B11F062E070E0C69F03
:101940009001C79F300DD69F300D1124A085B18521
:101950002A9FB0012B9F700D3A9F700D1124A48116
:10196000B5812A9FF0012B9FF00D3A9FF00D1124B5
:101970008E0F9F1FFA019183808373836283DF91AF
:10198000CF9108952F923F924F925F926F927F92E4
:101990008F929F92AF92BF92CF92DF92EF92FF927F
:1019A0000F931F93CF93DF9300D000D0CDB7DEB756
:1019B000DC011496ED91FC910190F081E02D808581
:1019C00091859A838983A281B381BC83AB83FB0118
:1019D00081909190A190B190C12CD12C7601C81426
:1019E000D904EA04FB04CCF026960FB6F894DEBFC7
:1019F0000FBECDBFDF91CF911F910F91FF90EF9060
:101A0000DF90CF90BF90AF909F908F907F906F901E
:101A10005F904F903F902F9008954480558066804E
:101A200077804085518562857385CF0140969E837E
:101A30008D83A081B1819D0183E0220F331F8A95A0
:101A4000E1F7A981BA8112968D919C91D901A80FD5
:101A5000B91F2D903C9011970484F585E02DEE0F71
:101A6000FF1F8B819C81E80FF91F0190F081E02D11
:101A700014968D919C91892B41F581E090E0E89F2F
:101A80009001E99F300DF89F300D1124249F8001B3
:101A9000259F100D349F100D1124249DC001259DFC
:101AA000900D349D900D1124A8016D817E81820DD1
:101AB000931D0E94CF33ED81FE81E00FF11F9FEF58
:101AC000C91AD90AE90AF90A8ACF82E090E0D7CF89
:101AD000CF93DF93DB01AA59BC4F2C91222369F0ED
:101AE00024E4269FF001279FF00D1124EF5DFA4FAB
:101AF000EF0119922A95E9F71C9224E4269FF00140
:101B0000279FF00D1124EF5DFA4F14821582168283
:101B100017821186108613861286118A108A1786FC
:101B20001686DF91CF9172CE2F923F924F925F92A5
:101B30006F927F928F929F92AF92BF92CF92DF92DD
:101B4000EF92FF920F931F93CF93DF9300D000D0BB
:101B50001F921F92CDB7DEB724E4269FF001279F86
:101B6000F00D1124EF5DFA4F048115812681378134
:101B7000012B022B032B09F4B7C02A016B017C0156
:101B800010E000E0812C912C54013F019F01285F5F
:101B90003F4F3C832B83CF0104969E838D83AB8183
:101BA000BC818D919C91ED81FE814081518162814A
:101BB000738184169506A606B706E4F10E944633A3
:101BC000D3011A968D919C91892B09F07EC084E4F3
:101BD0008C9DD0018D9DB00D1124AF5DBA4FBC839B
:101BE000AB8350968D919C910E944633EB81FC8192
:101BF000868597850E944633C701B60107DEC70177
:101C0000B60128960FB6F894DEBF0FBECDBFDF91A8
:101C1000CF911F910F91FF90EF90DF90CF90BF90E9
:101C2000AF909F908F907F906F905F904F903F907C
:101C30002F904ECFFC01E00FF11F92819983A38179
:101C4000AA839F83A887312C212C2414350464F0A7
:101C500089819A810E944633EFEF8E1A9E0AAE0A5E
:101C6000BE0A0C5F1F4F9BCFAF81B885ED91FD91F0
:101C7000B887AF83309759F0848195810E944633AD
:101C8000EF81F8853297808191810E944633BFEFC2
:101C90002B1A3B0ADACF800F911FFC0184819581BA
:101CA0000E9446332B813C812F5F3F4F3C832B8327
:101CB000025F1F4FF501808191812B813C812415AA
:101CC00035054CF30E94463382CF10E000E01C82C1
:101CD0001B8224E42C9DC0012D9D900D1124DC015C
:101CE000A55DBA4F5D01E6CF28960FB6F894DEBF2A
:101CF0000FBECDBFDF91CF911F910F91FF90EF905D
:101D0000DF90CF90BF90AF909F908F907F906F901B
:101D10005F904F903F902F90089524E4269FF0010C
:101D2000279FF00D1124EF5DFA4F82899389049764
:101D3000029758F485E090E0938B828B8FEF9FEFB2
:101D4000DC01828F938FA48FB58F08952F923F92DD
:101D50004F925F926F927F928F929F92AF92BF92BB
:101D6000CF92DF92EF92FF920F931F93CF93DF9367
:101D7000CDB7DEB7AA970FB6F894DEBF0FBECDBFC2
:101D80009AA389A37E8B6D8B1A01098B1A8B2B8BDF
:101D90003C8B84E429893A89829F6001839FD00C1F
:101DA000112486010F5D1A4F89899A89AB89BC89F4
:101DB000F80180839183A283B383AB01BC01CD0181
:101DC000B3DED601AB5DBA4F84E0F10101900D9214
:101DD0008A95E1F7F4E02F0E311C64E070E0D80141
:101DE00014968D919C910E949032F8019187808782
:101DF000892B09F0F5C04D895E8969897A898B89BB
:101E00009C8992DE81E0AA960FB6F894DEBF0FBEE1
:101E1000CDBFDF91CF911F910F91FF90EF90DF9099
:101E2000CF90BF90AF909F908F907F906F905F907A
:101E30004F903F902F900895A9A5BAA58D919C91A0
:101E4000E98DFA8DE80FF91FF88FEF8BD1018D9195
:101E50009C91880F991FA9A1BAA1ED91FC91E80F5F
:101E6000F91F80819181EF89F88D91838083D10161
:101E700014962D913D914D915C9117972BA33CA306
:101E80004DA35EA362E070E08D899E890E9490322E
:101E9000EF89F88D93838283892B09F4ACCFF8E026
:101EA0002F0E311C412C512C32012BA13CA14DA1F4
:101EB0005EA142165306640675069CF02B8D3C8D80
:101EC0004D8D5E8D2F5F3F4F4F4F5F4F2B8F3C8F60
:101ED0004D8F5E8F498D5A8D4C5F5F4F5A8F498F62
:101EE00090C0610124E0C20ED11CD101ED90FC90A4
:101EF000EE0CFF1CEF89F88D82819381E80EF91EAC
:101F000068E070E081E090E00E9490328C01D7019F
:101F10008D939C93892B09F46ECF84E0F601D80150
:101F200001900D928A95E1F7B8E02B0E311CF80173
:101F300080819181A281B381181619061A061B06A9
:101F4000DCF464E070E00E949032D80115969C9316
:101F50008E931497892B09F44ECFD12CC12C812C50
:101F6000912C5401F80180819181A281B38188165E
:101F70009906AA06BB0634F0FFEF4F1A5F0A6F0AF4
:101F80007F0A93CFF801E480F580EC0CFD1C80E122
:101F9000F101DE01119601900D928A95E1F7F0E1D1
:101FA0002F0E311CA701BE016F5F7F4FA9A1BAA1FF
:101FB00014968D919C9195DCF80186819781D701CB
:101FC00012962D913C91820F931F97838683BFEFCA
:101FD0008B1A9B0AAB0ABB0AE4E0CE0ED11CC2CF1F
:101FE0001A8E198E1B8E1C8E1D8E1E8E18A30F8F9F
:101FF000A8014C5F5F4F58A74FA3C80108969AA746
:1020000089A7EFA1F8A580819181A281B3812B8D51
:102010003C8D4D8D5E8D281739074A075B070CF400
:102020000BCF6EE070E08D899E890E949032AF8D5B
:10203000B8A11B969C938E931A97B12CA12CD12CEE
:10204000C12CF12CE12C24E4E989FA892E9FC001EE
:102050002F9F900D11249C01255D3A4F388F2F8BB7
:1020600088248394912C4D895E89C416D50654F139
:1020700084E4A989BA898A9F80018B9F100D11245D
:102080000F5D1A4FF80115861486C70133E0880FDB
:10209000991F3A95E1F70E94AA32D80151969C9374
:1020A0008E935097892B09F4A6CEC701880F991FEC
:1020B0000E94AA32F80197878687892B09F49BCE64
:1020C00080E0A1CED1014D905D906D907D901D017D
:1020D00077FC91CEEF89F88D008111810A0D1B1DCF
:1020E000D80111969C928E9241145104610471049E
:1020F00029F1C2010E94AA32F80195838483892BB9
:1021000009F479CEF80153824282848195819783C4
:102110008683918780871386128681E090E0452828
:102120004628472811F490E080E0E80EF91EFFEF02
:10213000CF1ADF0A2EE0A20EB11C95CF15961C9285
:102140001E921497DFCF2F923F924F925F926F9221
:102150007F928F929F92AF92BF92CF92DF92EF9237
:10216000FF920F931F93CF93DF93CDB7DEB76A979C
:102170000FB6F894DEBF0FBECDBF9E8B8D8B49018D
:102180005A0184E4829F7001839FF00C112497010F
:102190002F5D3A4F6901FB0180819181F901958B97
:1021A000848BD701A95CBA4FFB01349684E001907F
:1021B0000D928A95E1F7D701A55CBA4FFB013896DD
:1021C00084E001900D928A95E1F7D701A15CBA4FA6
:1021D000FB013C9684E001900D928A95E1F7D701CE
:1021E000A15BBA4FFB01709684E001900D928A9535
:1021F000E1F78B010C5E1F4FF90186A597A5A0A9F9
:10220000B1A918161906DCF5880F991F880F991FB8
:102210000E94AA32F60193AB82AB892B09F4D3C09A
:10222000312C212C412C512C32019601225D3F4F43
:10223000388F2F8BC601C2969A8F898FF496FC8BAC
:10224000EB8BB301A2012FEF421A520A620A720A03
:10225000EF89F88D80819181A281B3814817590758
:102260006A077B070CF47BC0F60184A995A90E943C
:10227000AA32F60197AB86AB892B09F4A4C0F8010A
:1022800080819181A281B38124E4289DF001299D60
:10229000F00D1124EF5DFA4FAC01BD014D7F21E03F
:1022A00030E0452B462B472B11F030E020E033A3E4
:1022B00022A324E4289DF001299DF00D1124EF5D57
:1022C000FA4F0197A109B10921E030E00297A10579
:1022D000B10510F030E020E035A324A3D701A95BBD
:1022E000BA4FF801349684E001900D928A95E1F797
:1022F00084E4889DF001899DF00D1124EF5DFA4F73
:10230000868D978DA0A1B1A1B7FF58C0B095A095BB
:10231000909581959F4FAF4FBF4F82AF93AFA4AFC2
:10232000B5AF168E178E10A211A280E06A960FB676
:10233000F894DEBF0FBECDBFDF91CF911F910F91FB
:10234000FF90EF90DF90CF90BF90AF909F908F90D5
:102350007F906F905F904F903F902F900895E98D00
:10236000FA8D808191819C01220D331D3A8B298B3E
:1023700080E1F801DE01119601900D928A95E1F756
:10238000005F1F4F49895A89BE016F5F7F4FED89FA
:10239000FE8984819581A5DAEB89FC898081918110
:1023A000E989FA8922813381820F931FEB89FC89A5
:1023B00091838083F4E02F0E311C43CF12AE13AE15
:1023C00014AE15AEB2CFC501B40120DA81E0AECFB4
:1023D000CF92DF92EF92FF92CF93DF931092A905F5
:1023E00024E4269FF001279FF00D1124EF5DFA4FA2
:1023F00015A614A630E020E0D12CC12CDF011A96DE
:10240000C1E0D0E0C416D506F4F024E4269FF00124
:10241000279FF00D1124EF5DFA4F13A612A611AEFF
:1024200010AEDF01DE961D921D921D921C92139735
:1024300082E090E0938B828BDF91CF91FF90EF90C1
:10244000DF90CF900895ED91FC911197E20FF31F6B
:10245000E280F3801E141F0454F4E480F580F782B8
:10246000E682F186E08613861286D183C083EFEF81
:10247000CE1ADE0A225F3F4FC5CF24E4269FF0012B
:10248000279FF00D1124EF5DFA4F138A128A4CCB6F
:1024900024E4269FF001279FF00D1124EF5DFA4FF1
:1024A0008289938981309105C8F08530910518F0B3
:1024B000059769F008958FEF9FEFDC01828F938F6E
:1024C000A48FB58F85E090E0938B828B08958FEF7A
:1024D0009FEFDC01828F938FA48FB58F089524E442
:1024E000249FD001259FB00D1124AF5DBA4F2EE07F
:1024F000AC01249FC001259F900D11241A96ED91E7
:10250000FC91E80FF91F81E08093A90582859385EE
:1025100091878087408551852681378181E090E0D1
:102520004217530711F090E080E091838083089573
:102530002F923F924F925F926F927F928F929F92D3
:10254000AF92BF92CF92DF92EF92FF920F931F93C1
:10255000CF93DF93CDB7DEB7C055D1090FB6F8944E
:10256000DEBF0FBECDBF9EAF8DAF4BA75CA76DA7E3
:102570007EA76801790184E4809FF001819FF00DBE
:102580001124EF5DFA4F2285338523963FAF2EAF9E
:10259000239782899389029761F486A597A5A0A9BC
:1025A000B1A9892B8A2B8B2BC9F584E090E0938B02
:1025B000828B84E48C9DF0018D9DF00D1124EF5DE4
:1025C000FA4F828993898230910509F037C282AD32
:1025D00093ADA4ADB5AD22242394312C1816190661
:1025E0001A061B060CF42FC2C05BDF4F0FB6F8941F
:1025F000DEBF0FBECDBFDF91CF911F910F91FF9036
:10260000EF90DF90CF90BF90AF909F908F907F9092
:102610006F905F904F903F902F9008958489958997
:102620004DAD5EAD8417950721F606A917A918AE22
:102630001FAA1BAA1CAA1DAA1EAA1F01CF018E96A3
:1026400027969FAF8EAF2797DF01D2962996BFAF0F
:10265000AEAF2997F8962B96FFAFEEAF2B9791016F
:102660002A5D3F4F2D963FAF2EAF2D97A1014E5DB6
:102670005F4F2F965FAF4EAF2F970A9761969FAF30
:102680008EAF61972796EEADFFAD27978081918140
:10269000A281B3812BA93CA94DA95EA928173907AE
:1026A0004A075B0744F081E090E0D101D9969C9302
:1026B0008E93D8977ECF2996AEADBFAD2997ED9179
:1026C000FC912FA938ADE20FF31F428153815AAF1D
:1026D00049AF50815FAF818121968FAF21972B96B3
:1026E000AEADBFAD2B978D919C91892B21F12D968D
:1026F000EEADFFAD2D9780809180A280B3801AABA4
:1027000009AB5FA72196FFAD2197F8AB29AD3AAD94
:10271000369527953695279525963FAF2EAF259769
:102720001CAE1BAE2596AEADBFAD2597EBADFCAD97
:10273000EA17FB070CF149AD5AAD6FAD21967FAD9D
:102740002197C8010E94CF3389AD9AAD8C7F080FC5
:10275000191F2BA93CA94DA95EA92F5F3F4F4F4FD1
:102760005F4F2BAB3CAB4DAB5EAB4FA958AD4C5F55
:102770005F4F58AF4FAB86CF2F96AEADBFAD2F9703
:102780008D919C91892B71F1EFA5F8A94080518022
:1027900062807380A3019201C501B4010E941926D1
:1027A000181664F0A9A9BAA92D913D914D915C919B
:1027B000C501B4010E94BB271816BCF1A301920108
:1027C000C501B4010E94192687FF0CC0E9A9FAA926
:1027D0002081318142815381C501B4010E941926B3
:1027E000882319F16196AEADBFAD61978D919C9133
:1027F000892B09F445C0EFA5F8A94080518062807B
:102800007380A3019201C501B4010E94BB27181671
:102810001CF5A9A9BAA92D913D914D915C91C501D5
:10282000B4010E94192618165CF184E48C9DF00115
:102830008D9DF00D1124EF5DFA4F868D978DA0A12F
:10284000B1A1892B8A2B8B2B69F183E090E0938BCC
:10285000828B81E090E02CC0A3019201C501B401FC
:102860000E94192681110CC0E9A9FAA920813181A1
:1028700042815381C501B4010E94192687FDD5CF3D
:102880002BAD3CAD2F5F3F4F3CAF2BAF49A95AA9B1
:102890004C5F5F4F5AAB49AB8FA598A9049698AB94
:1028A0008FA740CF84E090E0938B828B86AD97AD6D
:1028B00093A782A77ECEEBADFCAD80819181F40120
:1028C000EE0FFF1FEE0FFF1FE80FF91FA081B18170
:1028D0008C9181110AC0FFEF8F1A9F0AAF0ABF0ABD
:1028E0008DA29EA2AFA2B8A68FC18330A1F30280B1
:1028F000F381E02D2FA938ADE20FF31F8081918184
:102900009AAB89AB892B39F34F5F5F4F6F4F7F4F86
:1029100049875A876B877C879E01235E3F4FAE01B4
:10292000475D5F4F64E070E0C8010E94990B811120
:10293000D0C18D819E81AF81B8850496A11DB11D46
:102940008D839E83AF83B8874D8D5E8DBE016B5D99
:102950007F4F8F8D98A10E94CF338BA19CA10097B0
:1029600061F06D8D7E8DA5E2B0E0AC0FBD1F6A0FEA
:102970007B1F49A15AA10E94CF331CAA1BAA412C3C
:10298000512C3201E9A9FAA980819181A281B381F8
:10299000481659066A067B060CF09DCFE9A9FAA9EC
:1029A000848195812BA93CA9280F391F38AB2FA70B
:1029B000D90112966D917C919E01235E3F4FAE012D
:1029C000475D5F4FC8010E94990B811182C1EFA53D
:1029D000F8A982819381092E000CAA0BBB0B4D81B3
:1029E0005E816F817885840F951FA61FB71F8D8329
:1029F0009E83AF83B887608171814D8D5E8D8F8D91
:102A000098A10E94CF338BA19CA1009761F0AFA544
:102A1000B8A96D917C912D8D3E8D620F731F49A1D8
:102A20005AA10E94CF33BFEF4B1A5B0A6B0A7B0A95
:102A3000EBA9FCA93496FCABEBABA4CF312C212C39
:102A4000049709F0D1CD8EE0EDADFEAD8E9F8001F3
:102A50008F9F100D112423962EAD3FAD2397020FAB
:102A6000131FD80112964D915C9113974115510592
:102A700009F4BACD16968D919C919AA789A780E109
:102A8000FE013196DF011D928A95E9F7C98ADA8A3B
:102A9000EB8AFC8A2114310409F458C084E48C9D2B
:102AA000F0018D9DF00D1124EF5DFA4FDF01DE96F0
:102AB0008D909D90AD90BC9082AD93ADA4ADB5AD21
:102AC00088169906AA06BB0609F040C0F801848161
:102AD00095810084F185E02D349624E0DE01559641
:102AE00001900D922A95E1F72D893E89285F3F4F8D
:102AF0003E8B2D8BD80118966D917C911997260FDE
:102B0000371F19963C932E93189718962D913C9148
:102B10001997480F591F241B350B37FD06C0820F2C
:102B2000931F19969C938E93189784E48C9DF001C3
:102B30008D9DF00D1124E15AFA4FB1E08B1A9108E6
:102B4000A108B10880829182A282B3829E012B5E8D
:102B50003F4FAE01475D5F4F64E170E0C8010E94E6
:102B6000990B8111B6C08CE090E0A0E0B0E08D83BD
:102B70009E83AF83B8879E01235E3F4FAE01475DC2
:102B80005F4F64E070E0C8010E94990B8111A1C001
:102B900080E190E0A0E0B0E08D839E83AF83B887B2
:102BA0004D8D5E8DBE01655D7F4F8F8D98A10E941A
:102BB000CF338BA19CA1009761F06D8D7E8DEBE2F0
:102BC000F0E0EC0FFD1F6E0F7F1F49A15AA10E947C
:102BD000CF331DA21EA21FA218A62DAD3EAD220FFF
:102BE000331F38AF2FAB24E42C9DC0012D9D900DD9
:102BF00011248F5D9A4FAC014C5F5F4F5AAF49AFC4
:102C0000DC011896BCAFABAF8DA09EA0AFA0B8A45E
:102C100049855A856B857C85E9ADFAAD80819181C6
:102C2000A281B38188169906AA06BB060CF443CE8E
:102C3000452B462B472B09F4D7CC8AE190E0A0E046
:102C4000B0E089839A83AB83BC832DAD3EADC901CF
:102C5000330FAA0BBB0B8D879E87AF87B88B4D892F
:102C60005E89BE016F5F7F4F8F89988D0E94CF3341
:102C70008B8D9C8D009761F06D897E8941E050E0DD
:102C80004C0F5D1F640F751F498D5A8D0E94CF3305
:102C900089A59AA5D80117969C938E93169711969D
:102CA0001C921E92232809F49FCC84E48C9DF00191
:102CB0008D9DF00D1124E15AFA4F80819181A281FE
:102CC000B3810196A11DB11D80839183A283B3833B
:102CD0008BCC232809F088CC84E48C9DF0018D9D59
:102CE000F00D1124EF5DFA4F81E090E095A784A7E5
:102CF00085E090E0938B828B77CCCF92DF92EF923E
:102D0000FF920F931F9324E4269FF001279FF00D5D
:102D10001124EF5DFA4F228933892115310509F419
:102D200052C06B017C0121303105B1F482A593A51D
:102D30009C012F5F3F4F33A722A7092E000CAA0B3F
:102D4000BB0B028D138D248D358D80179107A20743
:102D5000B307C9F5C7013CDB84E48C9DF0018D9D70
:102D6000F00D1124EF5DFA4F82899389039759F58D
:102D700082A593A59C012F5F3F4F33A722A7092E61
:102D8000000CAA0BBB0B468D578D60A171A1841757
:102D90009507A607B707BCF086AD97AD93A782A7A6
:102DA00084E090E0938B828B82AD93ADA4ADB5AD02
:102DB000181619061A061B0634F4EE5BFF4F81E065
:102DC00090E0918380831F910F91FF90EF90DF90AF
:102DD000CF90089524E4269FF001279FF00D112441
:102DE000EF5DFA4F828993890497B1F482A593A588
:102DF000019693A782A7092E000CAA0BBB0B46894C
:102E00005789608D718D84179507A607B70721F440
:102E100085E090E0938B828B08952F923F924F92A2
:102E20005F926F927F928F929F92AF92BF92CF925A
:102E3000DF92EF92FF920F931F93CF93DF93CDB763
:102E4000DEB72E970FB6F894DEBF0FBECDBFDC0104
:102E500049835A836B837C83290184E4849FF00136
:102E6000859FF00D1124EF5DFA4F22883388C10150
:102E70000497029708F0D5C011961C921E921396E3
:102E80001C921E92129715861486912C812C90E02C
:102E900080E08F019F01205F3F4F38872F833F01E4
:102EA0003CE0630E711CBF01625F7F4F7A876987C8
:102EB0003A96FC87EB87EF81F88520813181F30119
:102EC00040815181E985FA85A080B18084159505FE
:102ED0000CF445C011965C934E9313963C932E933D
:102EE00012971596BC92AE921497452BF9F4F5E023
:102EF0002F163104D9F41092A905F801828D938D13
:102F0000A48DB58DAE014F5F5F4F64E070E08F3FE1
:102F10009F4FAF4FBF4F09F079C080E290E0F6D4E9
:102F200069817A818B819C81A201A7DA2E960FB6E6
:102F3000F894DEBF0FBECDBFDF91CF911F910F91EF
:102F4000FF90EF90DF90CF90BF90AF909F908F90C9
:102F50007F906F905F904F903F902F900895EB85FA
:102F6000FC8560817181FB01E80DF91DFE87ED870D
:102F700060817181672B89F5E084F18462817381BE
:102F80007E836D83668177816A01E3E0CC0CDD1C72
:102F9000EA95E1F72C0D3D1D440F551F4A0D5B1DB1
:102FA000FA0191838083F301408151814F5F5F4F2C
:102FB00051834083F901F382E282ED85FE857387B8
:102FC0006287E616F70670F46E197F09F9017183BE
:102FD000608315821482178216820196FEE08F0E9E
:102FE000911C69CFED85FE85C480D5804D815E81C1
:102FF0004C0D5D1D4E195F09F901518340836C1919
:103000007D0975836483D782C682E7CF8FE190E024
:103010007DD4F80113A612A681E090E0938B828BF9
:1030200085CF1586148611961C921E9213961C92BB
:103030001E9212977BCFEF92FF920F931F93CF9325
:10304000DF937C018B01EA013DD581111BC080918A
:103050006803909169030497F9F4DF91CF911F9170
:103060000F91FF90EF90089528ED38EB45E050E088
:1030700060E070E0CB01DCD7AE01B801C701E6D754
:10308000C801AFD78091AA059091AB05892BF9F6BD
:103090008881882349F3DBCF83E090E09093690334
:1030A00080936803DACFCF93DF9320916803309148
:1030B00069032430310531F0EB01C8D7CE01DF912F
:1030C000CF918FC7DF91CF9108950C9424240C9455
:1030D00019240C94072495C70C94AB23089570E031
:1030E00060E090E080E0C9C40895AF92BF92CF92B3
:1030F000DF92EF92FF920F931F93CF93DF931F9274
:103100001F92CDB7DEB75C018B0169017A0190E0B7
:1031100080E0C114D104E104F10469F40F900F9030
:10312000DF91CF911F910F91FF90EF90DF90CF90A3
:10313000BF90AF9008959C2D8D2DC114D10421E036
:10314000E206F10410F09FEF8FEF9E012F5F3F4FDB
:10315000492F582FB801C5010E94B4248F3F98070A
:10316000E9F229813A81C21AD30AE108F108020F73
:10317000131FCFCF40E855E260E070E090E080E0C0
:1031800000C08130910579F01CF4892B39F0089545
:103190008230910561F0039771F0089526E080EA8E
:1031A00096E00C94812F26E08DE397E0FACF26E09D
:1031B0008AED97E0F6CF26E087E798E0F2CF1F92FE
:1031C0000F920FB60F9211240BB60F922F933F93CD
:1031D0004F935F936F937F938F939F93AF93BF931F
:1031E000EF93FF938BEC93EF909325018093240151
:1031F0000E94EE24FF91EF91BF91AF919F918F912B
:103200007F916F915F914F913F912F910F900BBEE6
:103210000F900FBE0F901F9018958BEC93EF90932B
:10322000250180932401A3E7B0E08C918E7F8C93DD
:10323000E0E2F1E080818C7F8083E1E2F1E0808157
:10324000877E808380818560808380818D7F80837D
:103250008C9181608C93089581E008958F929F9264
:10326000AF92BF92CF92DF92EF92FF920F931F9394
:10327000CF93DF935C017B018A01C1E0D0E0CE15E2
:10328000DF05CCF081E0F5018083B801C7010E9421
:103290004F24F5019283818390E080E0DF91CF910C
:1032A0001F910F91FF90EF90DF90CF90BF90AF9064
:1032B0009F908F9008956E018FEFC81AD80AFE0173
:1032C000EE0FFF1FE00FF11F8080918081149104A9
:1032D00069F069E274E0C4010E94DF33892B41F494
:1032E000CC0FDD1FC00FD11F19821882E601C7CF96
:1032F0006CE274E0C4010E94DF33892BB9F7EC144F
:10330000FD04A1F36E01E2E0CE0ED11CCC0FDD1F57
:10331000C00FD11F198218821B821A82E7CF8CEA54
:1033200095E0089580E008950F931F93CF93DF9366
:103330008B01BA01E901198218829801012E000C53
:10334000440B550BFC0181819281CFDE019641F047
:103350001983088380E0DF91CF911F910F91089529
:1033600081E0F9CF0F931F93CF93DF931F921F92AA
:10337000CDB7DEB7FB018A01B9019E012F5F3F4F38
:10338000AF01FC01818192810E946624019669F05F
:1033900089819A81F8019183808380E00F900F905A
:1033A000DF91CF911F910F91089581E0F7CFFC013C
:1033B000808108950895089581E0FB01808380E075
:1033C000089508951092D4050895FC018181928199
:1033D0000C944624CF93DF9300D000D000D01F92EE
:1033E000CDB7DEB7B0E0A0E089839A83AB83BC831E
:1033F000CB01770FAA0BBB0B8D839E83AF83B8875E
:103400009E01275F3F4FAE014F5F5F4F68E070E066
:103410008091C3059091C40587DF811110C081E0C0
:1034200029853A852830310509F480E02A960FB6BF
:10343000F894DEBF0FBECDBFDF91CF91089581E03C
:10344000F5CF0F931F93CF93DF931F921F92CDB7AA
:10345000DEB78B019E012F5F3F4FAC018091C3050A
:103460009091C40561DF81110EC081E029813A810C
:103470002017310709F480E00F900F90DF91CF9172
:103480001F910F91089581E0F7CFCF93DF93EC0167
:103490001092C7051092C6051092D3051092D2055E
:1034A000AC0160E070E0CB010E943D12AE0161E032
:1034B00070E080E090E00E943D128091C305909101
:1034C000C405DF91CF917DCF4F925F926F927F9233
:1034D0008F929F92AF92BF92CF92DF92EF92FF9224
:1034E0000F931F93CF93DF931F921F92CDB7DEB739
:1034F0008C017C0197FF03C087E0E80EF11C23E0FC
:10350000F594E7942A95E1F7C80168E070E00E941D
:103510003F326C010E5F1F4F8091C1059091C20533
:1035200080179107D4F48091BF059091C005009752
:1035300031F00E9446331092C2051092C105C801B5
:103540000E94AA329093C0058093BF05892B09F48D
:1035500082C01093C2050093C10510E000E047C18E
:10356000412C512C3201B12CA12C950128533A4FFA
:10357000AE014F5F5F4F61E070E08091C3059091B5
:10358000C405F0DE811149C0EFEF4E1A5E0A6E0AE3
:103590007E0AF0E94F16FFE55F06F1E06F06710461
:1035A00044F06091D2057091D3058DEE90E012DF6A
:1035B000D7CF89819A81A80EB91E8AE0A816B104D6
:1035C00009F043C049E050E070E060E088EC95E02D
:1035D0000E94E0246091D2057091D305882391F177
:1035E0008091D00590E08617970781F4BC018EEE9C
:1035F00090E0F0DE8091D2059091D3050196992755
:103600009093D3058093D2050F5F1F4F0E151F05B2
:103610000CF4A6CFCD2809F07CC090E080E00F909C
:103620000F90DF91CF911F910F91FF90EF90DF905E
:10363000CF90BF90AF909F908F907F906F905F9052
:103640004F9008958FEE90E0B2CFEAE0AE16B1044D
:103650000CF48BCFDBCF10E000E0D8CF0A3011059F
:1036600031F549E050E070E060E088EC95E00E94C0
:10367000E0246091D2057091D3058823A9F0809150
:10368000D00590E08617970741F6BC018EEE90E0DA
:10369000A1DE8091D2059091D30501969927909350
:1036A000D3058093D205B9CF8FEE90E02BC00A30BE
:1036B00011050CF0B2CF980128533A4FAE014F5F7D
:1036C0005F4F61E070E08091C3059091C4054ADED0
:1036D0008111A3CF89819A81080F191FFFEFCF1A9B
:1036E000DF0AEF0AFF0A80E9C8168FE5D80681E0F5
:1036F000E806F1040CF4B2CF6091D2057091D305C5
:103700008DEE90E067DE10E000E0C12CD12C760158
:10371000D2CFC12CD12C760110E000E0CCCF412CCF
:10372000512C3201B12CA12C480193E0880C991C3A
:103730009A95E1F72091BF053091C005C501880D2C
:10374000991D280F391FAE014F5F5F4F61E070E098
:103750008091C3059091C40505DE81115ECFEFEF26
:103760004E1A5E0A6E0A7E0A6091D2057091D305E8
:103770008DEE90E0F0E94F16FFE55F06F1E06F0691
:1037800071040CF043C089819A81A80EB91E8AE0A9
:10379000A816B10409F041C049E050E0B40180919D
:1037A000BF059091C0050E94E0246091D205709100
:1037B000D305882349F18091BF059091C005880EFB
:1037C000991EF401808590E08617970781F4BC016B
:1037D0008EEE90E0FFDD8091D2059091D3050196A9
:1037E00099279093D3058093D2050F5F1F4F0E1535
:1037F0001F050CF494CFC114D10409F081C080914D
:10380000BF059091C0050BCF8FEE90E0E3DD412C1A
:10381000512C3201B12CA12C8DCFFAE0AF16B1049E
:103820000CF488CFE4CF8FEE90E0D4DDF12CE12CC6
:10383000812C912C5401970128533A4FAE014F5FD0
:103840005F4F61E070E08091C3059091C4058ADD0F
:103850008111E3CE8FEF881A980AA80AB80A6091FE
:10386000D2057091D3058DEE90E0E0E98E16EFE57C
:103870009E06E1E0AE06B104C4F689819A81E80EA5
:10388000F91EFAE0EF16F104A9F549E050E070E006
:1038900060E088EC95E00E94E0246091D205709190
:1038A000D305882309F4BFCF8091D00590E0861717
:1038B000970709F0A4CFBC018EEE90E08BDD83E08A
:1038C000000F111F8A95E1F78091BF059091C00507
:1038D000A60168EC75E0800F911F0E94CF338091A4
:1038E000D2059091D305019699279093D3058093A3
:1038F000D20585CF8AE0E816F1040CF49CCF7FCF87
:10390000812C912C5401F12CE12C95CFCF92DF9298
:10391000EF92FF920F931F93CF93DF931F92CDB738
:10392000DEB76C017B018A01452B39F0AB0170E0F9
:1039300060E0C8010E94DC248983B701C6014ADD2A
:1039400081110DC00115110551F0B701C80179DDD4
:10395000811105C061E070E0CE01019672DD0F902B
:10396000DF91CF911F910F91FF90EF90DF90CF905B
:103970000895CF92DF92EF92FF92CF93DF9300D022
:1039800000D01F921F92CDB7DEB76B01F12CE12C56
:10399000C982DA82EB82FC822D833E834F83588773
:1039A000AE014F5F5F4F68E070E0B0DF28960FB662
:1039B000F894DEBF0FBECDBFDF91CF91FF90EF90A7
:1039C000DF90CF9008958F929F92AF92BF92CF9247
:1039D000DF92EF92FF920F931F93CF93DF937C01BF
:1039E000EB01CA01690170DD0097B1F42FEF3FEFE1
:1039F000A90161E070E0C701BCDFC1E08C2FDF915D
:103A0000CF911F910F91FF90EF90DF90CF90BF90DB
:103A1000AF909F908F900895FC0181909190A1901C
:103A2000B190BF01FCE1EF16F10479F4A501940116
:103A3000CE010E94A310C82FA5019401882369F02C
:103A400061E070E0C70195DFD9CF95018401AB013A
:103A5000B601CE010E94A60EEECF70E060E0C70175
:103A6000DF91CF911F910F91FF90EF90DF90CF905A
:103A7000BF90AF909F908F907CCF0F931F93CF9369
:103A8000DF93EC018B014BDC9093C4058093C3055D
:103A90000097A9F0A801BE01E1DBEC01892B49F0F8
:103AA0008091C3059091C40585DC1092C4051092E5
:103AB000C305CE01DF91CF911F910F910895C8E307
:103AC000D4E0EECF8091C3059091C40570CC2F92C5
:103AD0003F924F925F926F927F928F929F92AF929E
:103AE000BF92CF92DF92EF92FF920F931F93CF93EB
:103AF000DF93CDB7DEB769970FB6F894DEBF0FBE80
:103B0000CDBF2091C7052223F1F05B8B4A8B6E87D6
:103B10007F87888B998B9A01AB01BC01CE010196FE
:103B20007C017BD910E048E0242E312CE88EF98E00
:103B300089819A81181619060CF450C2112319F0C4
:103B40008A899B89A2DC69960FB6F894DEBF0FBE06
:103B5000CDBFDF91CF911F910F91FF90EF90DF903C
:103B6000CF90BF90AF909F908F907F906F905F901D
:103B70004F903F902F900895EB81FC818C859D851F
:103B800033E0880F991F3A95E1F7E80FF91F80811C
:103B900091819093BE058093BD052481358142813A
:103BA00053815093BC054093BB0546815781509388
:103BB000BA054093B905820F931F9C01990F440BDE
:103BC000550B2C8B3D8B4E8B5F8B812C912C540194
:103BD0008C899D89AE89BF8988169906AA06BB067D
:103BE00038F18C859D85880F991FED81FE81E80F46
:103BF000F91F4E855F8568897989808191810E944E
:103C00006F12AC85BD851196BD87AC8789819A817D
:103C1000EC85FD85E817F9070CF4AECF2A893B89BE
:103C20004E855F8568897989888D998DF6D880CF92
:103C30001F826091BD057091BE05CB01072E000C5F
:103C4000AA0BBB0B84017501640134E0C30ED11CC7
:103C5000E11CF11CC816D906EA06FB0608F0B3C041
:103C60002091BB053091BC05A4014C5F5F4F240F30
:103C7000351FF901C080D12CF12CE12C2401350134
:103C8000F5E04F0E511C611C711C481659066A065E
:103C90007B0608F0A3C02091BB053091BC05F8015C
:103CA0003596E20FF31F2081D22A2401350126E048
:103CB000420E511C611C711C481659066A067B068F
:103CC00008F097C02091BB053091BC05F8013696ED
:103CD000E20FF31F2081E22A2401350137E0430E71
:103CE000511C611C711C481659066A067B0608F0B7
:103CF0008BC02091BB053091BC05F8013796E20FCF
:103D0000F31F208126013701722A7501640148E002
:103D1000C40ED11CE11CF11C8C159D05AE05BF0520
:103D200008F41DC188169906AA06BB0608F077C0DC
:103D30008091BB059091BC05800F911F68E070E0F9
:103D400080DBE091BD05F091BE059F010F2E000CB8
:103D5000440B550BD301C2018C0D9D1DAE1DBF1D23
:103D6000281739074A075B0708F478C0C216D3063C
:103D7000E406F50608F05DC08091BB059091BC0596
:103D80009801285F3F4F820F931FB2015ADB809149
:103D9000BD059091BE05AC01092E000C660B770B9A
:103DA000C416D506E606F70608F04DC0085F1F4F9B
:103DB0008091BB059091BC05800F911FA20170E01E
:103DC00060E0FAD5A7C044E050E0461B570B480D11
:103DD000591D2091B9053091BA0549CFE5E0F0E0D1
:103DE000E61BF70BE00FF11F2091B9053091BA05E2
:103DF00058CFE6E0F0E0E61BF70BE00FF11F209153
:103E0000B9053091BA0564CFE7E0F0E0E61BF70BA7
:103E1000E00FF11F2091B9053091BA0570CF9801DC
:103E2000261B370B8091B9059091BA05820F931F1D
:103E300085CF91012E1B3F0B200F311F8091B905BB
:103E40009091BA05A0CFD101A81BB90BCD01080FE5
:103E5000191F8091B9059091BA05AECFBF01685086
:103E60007109601B710BC216D306E406F50608F053
:103E700062C08091BB059091BC059801285F3F4FBF
:103E8000820F931FDEDA8091BD059091BE05B101CE
:103E9000681B790B600F711F640D751D8091B9054A
:103EA0009091BA05CEDA8091BD059091BE05AC0126
:103EB00048505109FA01E01BF10BAC01092E000C2E
:103EC000660B770BC416D506E606F70608F03DC06C
:103ED0008091BB059091BC059801285F3F4F820FF0
:103EE000931FAF0170E060E067D58F832091BD051F
:103EF0003091BE05F101E21BF30B9F01200F311F32
:103F0000240D351D50E040E0682F8091B905909157
:103F1000BA053ED58F8361E070E0CE01079691DA55
:103F2000182F38E0430E511C611C711C840C951C29
:103F3000A61CB71C4DCE91012E1B3F0B200F311F2D
:103F40008091B9059091BA059BCF9101281B390B3F
:103F5000200F311F8091B9059091BA05C0CF881606
:103F60009906AA06BB0668F5601B710B8091BB051C
:103F70009091BC05800F911F64DA8091BD059091EE
:103F8000BE05B101681B790B600F711F640D751DB3
:103F90008091B9059091BA0554DA8091BD05909150
:103FA000BE05AC01092E000C660B770BC416D506B6
:103FB000E606F70608F4FACE9101281B390BC90171
:103FC00046CFC801861B970B2091B9053091BA05E1
:103FD000B201685F7F4F820F931FDECF1D861C8664
:103FE00015CECF93DF93EC01AC0160E070E0CB0124
:103FF0006EDDAE0161E070E080E090E0DF91CF9196
:1040000066CDCF938091C3059091C4058BD9C82FFD
:1040100081110BC060E070E0CB010E94680D61E08F
:1040200070E080E090E00E94680D8C2FCF910895A1
:104030000F931F9389019A01AB01BC018091C305C5
:104040009091C405B8D91F910F9108954F925F9236
:104050006F927F928F929F92AF92BF92CF92DF9298
:10406000EF92FF920F931F93CF93DF93CDB7DEB7FD
:1040700063970FB6F894DEBF0FBECDBF6C018B0106
:104080005A018091C705882309F43DC08091C70576
:10409000882309F442C08091C6051A8219828823B8
:1040A00009F4C0C0F0E94F2EFFE55F2E662463944B
:1040B000712CF12CE12C970121553A4FAE014F5F45
:1040C0005F4F61E070E08091C3059091C4054AD9CB
:1040D000982E811169C089819A81E80EF91EE11438
:1040E000F10409F461C081E0481A510861087108BF
:1040F00059F56091D2057091D3058DEE90E06AD9A3
:104100001A82198251C067EC75E08091C3059091C5
:10411000C40552D9882309F4B9CF63960FB6F89431
:10412000DEBF0FBECDBFDF91CF911F910F91FF90EA
:10413000EF90DF90CF90BF90AF909F908F907F9047
:104140006F905F904F900895AAE0EA16F10409F08D
:1041500063C049E050E070E060E08FEA95E030D461
:104160006091D2057091D305882309F452C08091E3
:10417000B70590E08617970719F6BC018EEE90E020
:1041800029D988E0EFEAF5E0DE01199601900D9259
:104190008A95E1F78091D2059091D30501969927F0
:1041A0009093D3058093D20581E029813A8112163C
:1041B00013060CF080E09110CAC2882309F4ADCF39
:1041C0008091C605811104C019861A861B861C863B
:1041D00089859A85AB85BC8580319105A105B1059E
:1041E00008F09BCFFC018827E750FF4D8F4F0C94C0
:1041F000743279213823A7238D207D22B0226921B2
:1042000071214D218C237B2388238D208D208D20AF
:1042100038218FEE90E073CFBAE0EB16F1040CF486
:104220004ACFC2CFF12CE12CE8E06E2E712C29E0B0
:1042300030E02C0F3D1F2E0D3F1DAE014F5F5F4F35
:10424000B3016E197F098091C3059091C4058AD886
:10425000982E29813A81811109C0E20EF31EE114E2
:10426000F10421F0E8E0EE16F1040CF381E09FCFB9
:10427000D6011696ED91FC9180819181A281B38146
:1042800089839A83AB83BC83AE014F5F5F4F64E049
:1042900070E085E190E03ADB40CF8D859E8514D9B2
:1042A0002FEF3FEFA90161E070E0009771F0FC0192
:1042B000C080D180E280F380A801C701B6010E94CE
:1042C000E811A701960170E060E08DE190E051DB1C
:1042D00024CF4D855E859801B6018BE190E073DBBC
:1042E0001CCF4D855E852FEF3FEFB6018CE190E04E
:1042F000F6CFD6011496ED91FC9100811181F80161
:1043000082809380A080B18070E1472E512C612C77
:10431000712C49825A826B827C8288E090E0A0E016
:10432000B0E08D839E83AF83B8879E012F5E3F4FA1
:10433000AE014F5F5F4F68E070E08091C3059091E0
:10434000C4050E9494198823D9F010E000E0C80148
:1043500063960FB6F894DEBF0FBECDBFDF91CF914D
:104360001F910F91FF90EF90DF90CF90BF90AF9093
:104370009F908F907F906F905F904F900C944633FA
:1043800089899A89089709F7D801ED90FC90B8E0DF
:10439000EB0EF11CEE0CFF1CEE0CFF1CC7010E9483
:1043A000AA328C01892B89F249825A826B827C82E3
:1043B000C7010F2C000CAA0BBB0B8D839E83AF8310
:1043C000B8879E012F5E3F4FAE014F5F5F4F68E0A1
:1043D00070E08091C3059091C4050E9494198111E9
:1043E000B6CF89899A89089709F0B1CFD60112967C
:1043F000ED91FC914081518162817381D8014D938F
:104400005D936D937C931397448155816681778189
:1044100014964D935D936D937C93179740855185CA
:104420006285738518964D935D936D937C931B976E
:1044300084859585A685B785F80184879587A687A5
:10444000B787108A118A128A138A84E090E0A0E06C
:10445000B0E0848B958BA68BB78B8091680390918D
:104460006903B0E0A0E0808F918FA28FB38FC50168
:104470000B2C000CAA0BBB0B848F958FA68FB78FCC
:10448000F401D801909690E080E08A159B055CF1DC
:104490009E012F5E3F4FA801B7018091C305909107
:1044A000C4050E949419811152CF89899A89E8160E
:1044B000F90609F04CCFA70170E060E0C8017CD29A
:1044C0008B8B9E012F5E3F4FAE014D5E5F4F61E0D3
:1044D00070E08091C3059091C4050E94941981E019
:1044E0008093C60534CF4191519170E060E04D93C7
:1044F0005D936D937D930196C8CF8D859E85AF8525
:10450000B8890097A105B10521F481E08093C50524
:1045100004CE0E94641A009781F481E090E0A0E04C
:10452000B0E089839A83AB83BC83AE014F5F5F4F5A
:1045300064E070E082E190E0AECEBC01C6010E9472
:10454000C20C19821A821B821C82AE014F5F5F4F20
:1045500064E070E082E190E0D9D98823B1F2DDCD4A
:10456000D6011496ED91FC910190F081E02DE0844C
:10457000F1848FEF8983E114F10409F472C0D7014B
:104580006D907C90C280D38070E060E090E080E02D
:104590008615970594F083E190E00E94EA1910E0F7
:1045A00000E08111BACD061517055CF161E070E0FD
:1045B000CE0101960E94211AB0CD9C0143E0220F4A
:1045C000331F4A95E1F7F701A281B381A20FB31F10
:1045D0001296ED91FC911397EE0FFF1FEC0DFD1D50
:1045E0000190F081E02D16964D915C91E49F900131
:1045F000E59F300DF49F300D1124620F731F01965B
:10460000C7CFD7011296ED91FC91C80123E0880F26
:10461000991F2A95E1F7E80FF91FA080B180A281C8
:10462000B381AA0FBB1FAC0DBD1D2D913C9186819E
:104630009781289F4001299F900C389F900C11244E
:10464000B401C5010E94211A582E940150E040E0A7
:104650006981C5019DD1898351105FCD0F5F1F4FC7
:10466000A2CF70E060E083E190E00E94EA1955CDAE
:1046700050E040E070E060E081E190E047D98111D6
:104680004CCD60E070E0CB010E948D0E8091A905B9
:10469000882329F0A80160E070E0CB0118DAA801B6
:1046A00060E070E0CB010E94940D61E070E080E07A
:1046B00090E00E948D0E8091A905882331F0A80119
:1046C00061E070E080E090E002DAA80161E070E073
:1046D00080E090E00E94940D1092C7051092C605EC
:1046E0001092D3051092D2058091C3059091C40514
:1046F0000E94E21912CD81E090E09093AB05809387
:10470000AA0550E040E070E060E086E190E0C3CDB3
:1047100081E0F501808301CD8D859E850E94641A1C
:104720002FEF3FEFA90161E070E0009769F0DC0135
:10473000CD90DD90ED90FC90C701B6010E9448122B
:10474000A701960170E060E08EE190E0C0CDC80165
:104750000E94451AE2CCCF92DF92EF92FF92CF9364
:10476000DF93EC01C12CD12C7601C701B6010E9468
:104770008D0EAE01C701B601AAD9AE01C701B601BF
:104780000E94940D8091BF059091C005009731F073
:104790000E9446331092C0051092BF05CA94CD28DE
:1047A000CE28CF2879F58091C605F12C882351F0C9
:1047B00050E040E070E060E084E190E0A7D8F82E9F
:1047C0001092C6058091C705882341F01092C70555
:1047D00081E090E090936903809368038091C30522
:1047E0009091C4050E94E5198091C3059091C4057C
:1047F0000E94DA198F2DDF91CF91FF90EF90DF901B
:10480000CF900895C12CD12C7601C394AECFCF9315
:10481000DF93EC01AC0160E070E0CB010E947D16FB
:10482000AE0161E070E080E090E0DF91CF910C9408
:104830007D1660E070E0CB010E94EA1661E070E056
:1048400080E090E00C94EA16CF92DF92EF92FF9214
:104850000F931F93CF93DF93EC016A017B0100E07C
:1048600010E098010E94981201E010E020E030E092
:10487000B701A601CE010E949812DF91CF911F913E
:104880000F91FF90EF90DF90CF90089568EE73E066
:1048900080E090E00E94542C90E080E0089526E0B3
:1048A00040E050E16EE070E080EA96E00E94812FE7
:1048B00080EA96E00E94B72E892B29F080EA96E0E4
:1048C0000E94D12EF5CF90E080E00895CF92DF9244
:1048D000EF92FF920F931F93CF93DF936B017A01B7
:1048E000E9011982188280EA96E00E94B72E892B8E
:1048F00081F18601CC24C39485E6D82E8091D4051D
:10490000811112C080EA96E00E94D12E8536910571
:10491000A9F7C092D405F801D1928F0188819981BD
:10492000019699838883EACF888199818E159F05A6
:1049300080F480EA96E00E94D12E8F3F9807A1F381
:10494000F80181938F0188819981019699838883E9
:10495000EBCF90E080E0DF91CF911F910F91FF901E
:10496000EF90DF90CF9008950F931F93CF93DF9335
:10497000EA01890180EA96E00E941132F801D183B0
:10498000C08390E080E0DF91CF911F910F91089557
:10499000DC01A40FB51F420F531F9D01281B390BCB
:1049A0002417350710F0862F0895ED91E627F0E0E3
:1049B000EC51FF4F6491F1CF9A01AB016FEFE8CF5B
:1049C000CF93FC01E60FF71FE40FF51FC081F4DF62
:1049D00091E0C81390E0892FCF9108958091D5057B
:1049E00091E0980F9093D505882349F021E030E0BD
:1049F0003093D7052093D6058093D50508957894F4
:104A00000E946505F8948091D50581508093D50565
:104A10000C946718DF92EF92FF920F931F93CF933E
:104A2000DF931F92CDB7DEB71092BB091092BA097F
:104A300071D70E94BA1800918F0310919003F8016A
:104A40001182108270E060E090E080E00E946F18B8
:104A50000E941D09F8947894C8018F5B9F4F0E94B3
:104A60006E1881E090E00E946B181982AE014F5FD2
:104A70005F4F61E070E0F801828193810E941B1812
:104A80008981882329F081E0F801EB5BFF4F808367
:104A90000E947418F8940E940D19F8018081918188
:104AA000892B29F481E0EB5BFF4F9081911180E02D
:104AB0008093BA09789478947801F5E4EF0EF11CAC
:104AC000DD24D3948091BA09811112C00E94480B51
:104AD00081E090E00E946C18F89490E080E00F90E4
:104AE000DF91CF911F910F91FF90EF90DF9008958C
:104AF0001982AE014F5F5F4F61E070E0F801828183
:104B000093810E9453188981882311F0F701D08284
:104B1000F80180819181892B91F481E0F7019081E6
:104B2000911101C080E08093BB099091BB0981E0A5
:104B3000911180E08093BA090E942C19C3CF81E0C3
:104B4000F2CF5058BB27AA270ED0C4C1B5D130F040
:104B5000BAD120F031F49F3F11F41EF4AAC10EF433
:104B6000E095E7FB77C1E92FC6D180F3BA1762075A
:104B700073078407950718F071F49EF5F5C10EF4DC
:104B8000E0950B2EBA2FA02D0B01B90190010C015D
:104B9000CA01A0011124FF27591B99F0593F50F475
:104BA000503E68F11A16F040A22F232F342F4427CD
:104BB000585FF3CF469537952795A795F0405395C5
:104BC000C9F77EF41F16BA0B620B730B840BBAF095
:104BD0009150A1F0FF0FBB1F661F771F881FC2F700
:104BE0000EC0BA0F621F731F841F48F48795779514
:104BF0006795B795F7959E3F08F0B3CF9395880FCB
:104C000008F09927EE0F97958795089596D180F033
:104C10009F3740F491110EF4A8C160E070E080E885
:104C20009FE3089526F01B16611D711D811D18C19B
:104C300032C1ECD008F481E008950CD04BC143D1CF
:104C400040F03AD130F021F45F3F19F003C1511127
:104C50008CC12FC150D198F39923C9F35523B1F3D7
:104C6000951B550BBB27AA2762177307840738F0DB
:104C70009F5F5F4F220F331F441FAA1FA9F333D03A
:104C80000E2E3AF0E0E830D091505040E695001CEE
:104C9000CAF729D0FE2F27D0660F771F881FBB1FAA
:104CA000261737074807AB07B0E809F0BB0B802D84
:104CB000BF01FF2793585F4F2AF09E3F510568F0D0
:104CC000C9C053C15F3FECF3983EDCF386957795FE
:104CD0006795B795F7959F5FC9F7880F911D9695D2
:104CE000879597F90895E1E0660F771F881FBB1F2E
:104CF000621773078407BA0720F0621B730B840BDB
:104D0000BA0BEE1F88F7E095089504D06894B111AE
:104D10002CC10895F8D088F09F5790F0B92F9927AB
:104D2000B751A0F0D1F0660F771F881F991F1AF0B6
:104D3000BA95C9F712C0B13081F016D1B1E008952B
:104D400013C1672F782F8827B85F39F0B93FCCF3AC
:104D5000869577956795B395D9F73EF490958095AC
:104D6000709561957F4F8F4F9F4F0895E89409C0CC
:104D700097FB3EF490958095709561957F4F8F4F8E
:104D80009F4F9923A9F0F92F96E9BB279395F695A4
:104D9000879577956795B795F111F8CFFAF4BB0F22
:104DA00011F460FF1BC06F5F7F4F8F4F9F4F16C086
:104DB000882311F096E911C0772321F09EE8872F10
:104DC000762F05C0662371F096E8862F70E060E0CC
:104DD0002AF09A95660F771F881FDAF7880F969545
:104DE000879597F90895A9D080F09F3740F49111E5
:104DF0000EF0BBC060E070E080E89FEB089526F401
:104E00001B16611D711D811D2BC045C0990F000827
:104E1000550FAA0BE0E8FEEF16161706E807F9078C
:104E2000C0F012161306E407F50798F0621B730B27
:104E3000840B950B39F40A2661F0232B242B252BA8
:104E400021F408950A2609F4A140A6958FEF811D4B
:104E5000811D089597F99F6780E870E060E00895EC
:104E6000882371F4772321F09850872B762F07C081
:104E7000662311F499270DC09051862B70E060E0F5
:104E80002AF09A95660F771F881FDAF7880F969594
:104E9000879597F908959F3F31F0915020F48795B9
:104EA00077956795B795880F911D9695879597F992
:104EB00008959FEF80EC089500240A9416161706B3
:104EC00018060906089500240A94121613061406FB
:104ED00005060895092E0394000C11F4882352F05E
:104EE000BB0F40F4BF2B11F460FF04C06F5F7F4F16
:104EF0008F4F9F4F089557FD9058440F551F59F0FD
:104F00005F3F71F04795880F97FB991F61F09F3FB6
:104F100079F087950895121613061406551FF2CFDF
:104F20004695F1DF08C0161617061806991FF1CF2F
:104F300086957105610508940895E5DFA0F0BEE748
:104F4000B91788F4BB279F3860F41616B11D672F78
:104F5000782F8827985FF7CF869577956795B11D4D
:104F600093959639C8F30895E894BB276627772769
:104F7000CB0197F908954ADF08F48FEF08950BD01D
:104F8000A9CF9ADF28F09FDF18F0952309F062CFB0
:104F900090CF1124EACFAFDFA0F3959FD1F3950F07
:104FA00050E0551F629FF001729FBB27F00DB11DAD
:104FB000639FAA27F00DB11DAA1F649F6627B00D3D
:104FC000A11D661F829F2227B00DA11D621F739F26
:104FD000B00DA11D621F839FA00D611D221F749F34
:104FE0003327A00D611D231F849F600D211D822F7B
:104FF000762F6A2F11249F5750408AF0E1F08823C2
:105000004AF0EE0FFF1FBB1F661F771F881F9150CE
:105010005040A9F79E3F510570F01CCFA6CF5F3FCF
:10502000ECF3983EDCF3869577956795B795F79501
:10503000E7959F5FC1F7FE2B880F911D9695879589
:1050400097F9089590E080E0089580910706909187
:105050000806891B990B0895909108068091070610
:105060002FEF3FEF981748F4E92FF0E0E75FF94F93
:10507000208130E09F5F90930806C9010895E09178
:10508000080680910706E81730F4F0E0E75FF94F73
:10509000808190E008958FEF9FEF08950895CF935A
:1050A000DF931F92CDB7DEB769832091E4052223F9
:1050B000F9F02091E505203258F021E030E0FC01C4
:1050C0003383228390E080E00F90DF91CF910895A9
:1050D0008091E605E82FF0E0E951FA4F998190833D
:1050E0008F5F8093E6058093E50581E090E0ECCF4B
:1050F00061E0CE0101963ED0F8CFCF92DF92EF92E1
:10510000FF920F931F93CF93DF937C01CB018A0112
:105110002091E405222389F0EB016B01C40ED51E1A
:10512000CC15DD0561F06991D701ED91FC910190FD
:10513000F081E02DC7011995F3CF642F1BD0C80172
:10514000DF91CF911F910F91FF90EF90DF90CF9063
:105150000895E8EDF5E01382128288EE93E0A0E076
:10516000B0E084839583A683B78387E794E0918337
:105170008083089520914B06260F3327331F213259
:105180003105ECF420919606FC0190E080E024309B
:1051900069F082E00895A0914B062191AC01435B38
:1051A000594FA40FB52FB11D2C930196861798F374
:1051B00080914B06680F60934B0680E0089581E074
:1051C000089585ED8093BC008091BC0084FDFCCFE8
:1051D00010929606089585EC8093BC001092960676
:1051E00008951F920F920FB60F9211240BB60F92D3
:1051F0002F933F934F935F936F937F938F939F93DF
:10520000AF93BF93EF93FF938091B900887F80366F
:1052100009F44CC008F03FC0883209F4A8C028F552
:10522000803109F49CC0C8F4882309F4F8C08830A0
:1052300009F495C0FF91EF91BF91AF919F918F912C
:105240007F916F915F914F913F912F910F900BBE86
:105250000F900FBE0F901F901895883109F487C0EA
:10526000803241F78093290614C0803409F49CC031
:1052700040F48033B9F38833E9F680932906ABDF35
:10528000D9CF803509F484C0883509F495C08834B5
:1052900089F697DFCFCF883909F48CC038F5883785
:1052A00029F050F4883611F0803721F683E080939E
:1052B000960610922A0657C0883809F47BC08039B8
:1052C00019F0803809F0B6CF80912A06803208F0B4
:1052D00071C0E0912A0681E08E0F80932A068091AA
:1052E000BB00F0E0E55DF94F80833DC0803B39F0C5
:1052F000E0F4803A09F479C0883A09F09BCF84E061
:105300008093960610924C0610924B06E0919106FF
:10531000F0919206199580914B0681110FC081E0A2
:1053200080934B0610924D0609C0803C09F475C06D
:10533000883C09F472C0883B09F07CCFE0914C06B0
:1053400081E08E0F80934C06F0E0E35BF94F8081A3
:105350008093BB0090914C0680914B0629C08091B0
:1053600095068093BB0085EC8093BC0063CF909141
:105370006E0680916D06981758F5E0916E0681E0F3
:105380008E0F80936E06F0E0E159F94F8081E9CFEE
:10539000E0916E0681E08E0F80936E068091BB00D7
:1053A000F0E0E159F94F808390916E0680916D068F
:1053B0009817C8F285E8D8CFE0916E0681E08E0F8D
:1053C00080936E068091BB00F0E0E159F94F808335
:1053D0008091940681115DCF81E08093930684EAE9
:1053E0008093BC001092960625CFF5DE80912A06A8
:1053F000803230F4E0912A06F0E0E55DF94F10824A
:1054000060912A0670E0E0918F06F09190068BE2A1
:1054100096E0199510922A060DCF85ECE1CF1092F7
:10542000290637CF0895883008F076C0E82FF0E0DD
:10543000EE0FFF1FE659FC4F718360838150873068
:1054400008F03DC0E82FF0E08827E65DF54D8F4F6E
:105450000C947432672A312A392A452A522A732A2F
:10546000802A809169008C7F482B40936900E89ADC
:10547000089580916900837F440F551F440F551F85
:10548000482B40936900E99A0895809169008F7CC8
:1054900074E0440F551F7A95E1F7482B409369005B
:1054A000EA9A0895809169008F7366E0440F551F52
:1054B0006A95E1F7482B40936900EB9A0895809133
:1054C0006A008C7F482B40936A00EC9A0895809183
:1054D0006A00837F440F551F440F551F482B40938C
:1054E0006A00ED9A089580916A008F7C24E0440F51
:1054F000551F2A95E1F7482B40936A00EE9A0895CC
:1055000080916A008F7396E0440F551F9A95E1F7DA
:10551000482B40936A00EF9A08951F920F920FB69E
:105520000F9211240BB60F922F933F934F935F93DB
:105530006F937F938F939F93AF93BF93EF93FF935B
:10554000E0916E03F0916F031995FF91EF91BF9178
:10555000AF919F918F917F916F915F914F913F910B
:105560002F910F900BBE0F900FBE0F901F901895AC
:105570001F920F920FB60F9211240BB60F922F931A
:105580003F934F935F936F937F938F939F93AF93CB
:10559000BF93EF93FF93E0917003F091710319951E
:1055A000FF91EF91BF91AF919F918F917F916F91FB
:1055B0005F914F913F912F910F900BBE0F900FBEB7
:1055C0000F901F9018951F920F920FB60F921124F3
:1055D0000BB60F922F933F934F935F936F937F93ED
:1055E0008F939F93AF93BF93EF93FF93E0917203D9
:1055F000F09173031995FF91EF91BF91AF919F9136
:105600008F917F916F915F914F913F912F910F906B
:105610000BBE0F900FBE0F901F9018951F920F9208
:105620000FB60F9211240BB60F922F933F934F9307
:105630005F936F937F938F939F93AF93BF93EF93FA
:10564000FF93E0917403F09175031995FF91EF9129
:10565000BF91AF919F918F917F916F915F914F918A
:105660003F912F910F900BBE0F900FBE0F901F9088
:1056700018951F920F920FB60F9211240BB60F922E
:105680002F933F934F935F936F937F938F939F934A
:10569000AF93BF93EF93FF93E0916A03F0916B0395
:1056A0001995FF91EF91BF91AF919F918F917F914C
:1056B0006F915F914F913F912F910F900BBE0F9083
:1056C0000FBE0F901F9018951F920F920FB60F925A
:1056D00011240BB60F922F933F934F935F936F93C9
:1056E0007F938F939F93AF93BF93EF93FF93E0913B
:1056F0006C03F0916D031995FF91EF91BF91AF91FC
:105700009F918F917F916F915F914F913F912F91D9
:105710000F900BBE0F900FBE0F901F9018951F9209
:105720000F920FB60F9211240BB60F922F933F9347
:105730004F935F936F937F938F939F93AF93BF9399
:10574000EF93FF93E0917603F09177031995FF9122
:10575000EF91BF91AF919F918F917F916F915F91E9
:105760004F913F912F910F900BBE0F900FBE0F9056
:105770001F9018951F920F920FB60F9211240BB61F
:105780000F922F933F934F935F936F937F938F93DA
:105790009F93AF93BF93EF93FF93E0917803F091C2
:1057A00079031995FF91EF91BF91AF919F918F91DF
:1057B0007F916F915F914F913F912F910F900BBE11
:1057C0000F900FBE0F901F9018951F920F920FB65B
:1057D0000F9211242F933F938F939F93AF93BF9377
:1057E0008091980690919906A0919A06B0919B0697
:1057F0003091970623E0230F2D3758F50196A11D10
:10580000B11D209397068093980690939906A093D4
:105810009A06B0939B0680919C0690919D06A0915C
:105820009E06B0919F060196A11DB11D80939C0616
:1058300090939D06A0939E06B0939F06BF91AF9153
:105840009F918F913F912F910F900FBE0F901F90BE
:10585000189526E8230F0296A11DB11DD2CF3FB7A0
:10586000F89480919C0690919D06A0919E06B0911F
:105870009F0626B5A89B05C02F3F19F00196A11DD4
:10588000B11D3FBFBA2FA92F982F8827BC01CD018A
:10589000620F711D811D911D42E0660F771F881FE9
:1058A000991F4A95D1F708958F929F92AF92BF9218
:1058B000CF92DF92EF92FF926B017C01D0DF4B0120
:1058C0005C01C114D104E104F104D9F0D7D5C7DFDC
:1058D000681979098A099B09683E73408105910519
:1058E00080F321E0C21AD108E108F10888EE880EA1
:1058F00083E0981EA11CB11CC114D104E104F10481
:1059000031F7FF90EF90DF90CF90BF90AF909F90D6
:105910008F900895789484B5826084BD84B5816049
:1059200084BD85B5826085BD85B5816085BDEEE6A7
:10593000F0E0808181608083E1E8F0E01082808186
:1059400082608083808181608083E0E8F0E08081F4
:1059500081608083E1EBF0E0808184608083E0EB14
:10596000F0E0808181608083E1E9F0E08081826005
:105970008083808181608083E0E9F0E080818160C4
:105980008083E1EAF0E080818260808380818160B1
:105990008083E0EAF0E0808181608083E1E2F1E0F1
:1059A000808182608083808181608083E0E2F1E099
:1059B000808181608083EAE7F0E080818460808379
:1059C0008081826080838081816080838081806823
:1059D00080831092C10008951F93CF93DF93182FF7
:1059E000EB0161E033D1209731F460E0812FDF914A
:1059F000CF911F9167C1CF3FD10511F461E0F6CF80
:105A0000E12FF0E0EC51FE4FE491E150E23108F07B
:105A1000B2C0F0E08827E15FF24D8F4F65C5212DC0
:105A2000292D2E2D382D422DBB2D4C2D542D5C2D86
:105A3000662D702D7A2D892D932DBB2D9D2DA72D93
:105A4000B12D84B5806884BDC7BDDF91CF911F9112
:105A5000089584B5806284BDC8BDF7CF8091800071
:105A6000806880938000D0938900C0938800EDCF38
:105A700080918000806280938000D0938B00C093DF
:105A80008A00E3CF80918000886080938000D0936B
:105A90008D00C0938C00D9CF8091B0008068809336
:105AA000B000C093B300D1CF8091B00080628093EA
:105AB000B000C093B400C9CF8091900080688093FB
:105AC0009000D0939900C0939800BFCF8091900030
:105AD000806280939000D0939B00C0939A00B5CFD2
:105AE00080919000886080939000D0939D00C09337
:105AF0009C00ABCF8091A00080688093A000809133
:105B0000A0008F7B8093A000D093A900C093A80031
:105B10009CCF8091A00080628093A000D093AB00C6
:105B2000C093AA0092CF8091A00088608093A000CB
:105B3000D093AD00C093AC0088CF809120018068E5
:105B400080932001D0932901C09328017ECF8091BA
:105B50002001806280932001D0932B01C0932A0101
:105B600074CF80912001886080932001D0932D0113
:105B7000C0932C016ACFC038D1050CF03FCF35CF90
:105B80008150823108F059C0E82FF0E08827E553B2
:105B9000F24D8F4FA9C4EB2DEF2DDD2DE32DE72D19
:105BA0001D2EF22DF82DFC2D022E062E0A2E102E63
:105BB000142E1D2E182E1E2E222E809180008F77DF
:105BC000809380000895809180008F7DF9CF80912F
:105BD0008000877FF5CF84B58F7784BD089584B525
:105BE0008F7DFBCF8091B0008F778093B0000895B8
:105BF0008091B0008F7DF9CF809190008F77809356
:105C000090000895809190008F7DF9CF8091900051
:105C1000877FF5CF8091A0008F778093A0000895B3
:105C20008091A0008F7DF9CF8091A000877FF5CF74
:105C3000809120018F778093200108958091200129
:105C40008F7DF9CF80912001877FF5CFCF93DF93B0
:105C500090E0FC01E65DFD4F249180599D4FFC01D1
:105C600084918823C9F090E0880F991FFC01E651C8
:105C7000FD4FA591B491FC01E053FD4FC591D49126
:105C800061110DC09FB7F8948C91209582238C935D
:105C90008881282328839FBFDF91CF9108956230A8
:105CA00051F49FB7F8943C91822F809583238C9375
:105CB000E8812E2BEFCF8FB7F894EC912E2B2C93FD
:105CC0008FBFEACF1F93CF93DF93282F30E0F901E6
:105CD000EC51FE4F8491F901E65DFD4FD491F9013D
:105CE000E059FD4FC491CC23A1F0162F811148DF5C
:105CF000EC2FF0E0EE0FFF1FE053FD4FA591B491A4
:105D00008FB7F894EC91111108C0D095DE23DC9385
:105D10008FBFDF91CF911F910895DE2BF8CFCF93E6
:105D2000DF93282F30E0F901EC51FE4F8491F90107
:105D3000E65DFD4FD491F901E059FD4FC491CC23AC
:105D400099F081111DDFEC2FF0E0EE0FFF1FEA54F8
:105D5000FD4FA591B491EC91ED2381E090E009F421
:105D600080E0DF91CF91089580E090E0FACFFC01D0
:105D7000918D228D892F90E0805C9F4F821B91092D
:105D80008F7399270895FC01918D828D981731F0BA
:105D9000828DE80FF11D858D90E008958FEF9FEFC4
:105DA0000895FC01918D828D981761F0A28DAE0F40
:105DB000BF2FB11D5D968C91928D9F5F9F73928FC7
:105DC00090E008958FEF9FEF0895FC01538D448D6F
:105DD000252F30E0842F90E0821B930B541710F096
:105DE000CF96089501970895FC01A48DA80FB92FAF
:105DF000B11DA35ABF4F2C91848D90E001968F73F3
:105E00009927848FA689B7892C93A089B1898C9111
:105E1000837080648C93938D848D981306C0028860
:105E2000F389E02D80818F7D80830895CF93DF9368
:105E3000EC01888D8823B1F0AA89BB89E889F989AA
:105E40008C9185FD03C0808186FD0CC00FB607FCD8
:105E5000F7CF8C9185FFF2CF808185FFEDCFCE010A
:105E6000C3DFEACFDF91CF910895EF92FF920F93B6
:105E70001F93CF93DF93EC0181E0888F9B8D8C8DF6
:105E800098131AC0E889F989808185FF15C09FB7EA
:105E9000F894EE89FF896083E889F98980818370AD
:105EA000806480839FBF81E090E0DF91CF911F915C
:105EB0000F91FF90EF900895F62E0B8D10E00F5F7D
:105EC0001F4F0F731127E02E8C8D8E110BC00FB654
:105ED00007FCFACFE889F989808185FFF5CFCE01EB
:105EE00083DFF2CFEB8DEC0FFD2FF11DE35AFF4F57
:105EF000F0829FB7F8940B8FEA89FB8980818062DA
:105F0000D0CFCF92DF92EF92FF921F93CF93DF9388
:105F1000EC016A017B01122FE889F98982E0808314
:105F2000C11481EED806E104F10499F060E079E053
:105F30008DE390E0A7019601B5D2215031094109C6
:105F400051095695479537952795211580E13807D2
:105F500090F0E889F989108260E874E88EE190E0B9
:105F6000A70196019FD22150310941095109569547
:105F7000479537952795EC85FD853083EE85FF8520
:105F80002083188EEC89FD891083EA89FB89808142
:105F900080618083EA89FB89808188608083EA89C7
:105FA000FB89808180688083EA89FB8980818F7D7D
:105FB0008083DF91CF911F91FF90EF90DF90CF9082
:105FC00008951F920F920FB60F9211240BB60F92E5
:105FD0002F938F939F93EF93FF93E091B006F091EF
:105FE000B1068081E091B606F091B70682FD1DC032
:105FF00090818091B9068F5F8F732091BA068217C6
:1060000041F0E091B906F0E0E056F94F958F8093AA
:10601000B906FF91EF919F918F912F910F900BBE39
:106020000F900FBE0F901F9018958081F2CF1F9296
:106030000F920FB60F9211240BB60F922F933F932E
:106040004F935F936F937F938F939F93AF93BF9380
:10605000EF93FF9380EA96E0C7DEFF91EF91BF9147
:10606000AF919F918F917F916F915F914F913F91F0
:106070002F910F900BBE0F900FBE0F901F90189591
:10608000E0EAF6E01382128288EE93E0A0E0B0E04E
:1060900084839583A683B78389E894E09183808382
:1060A00085EC90E09587848784EC90E097878687DD
:1060B00080EC90E0918B808B81EC90E0938B828BD5
:1060C00082EC90E0958B848B86EC90E0978B868BAE
:1060D000118E128E138E148E08951F920F920FB68A
:1060E0000F9211240BB60F922F938F939F93EF93E0
:1060F000FF93E0914D07F0914E078081E0915307A7
:10610000F091540782FD1DC09081809156078F5FEA
:106110008F7320915707821741F0E0915607F0E006
:10612000E35CF84F958F80935607FF91EF919F9115
:106130008F912F910F900BBE0F900FBE0F901F905D
:1061400018958081F2CF1F920F920FB60F921124F3
:106150000BB60F922F933F934F935F936F937F9361
:106160008F939F93AF93BF93EF93FF938DE397E04C
:106170003BDEFF91EF91BF91AF919F918F917F9106
:106180006F915F914F913F912F910F900BBE0F90A8
:106190000FBE0F901F901895EDE3F7E01382128267
:1061A00088EE93E0A0E0B0E084839583A683B78374
:1061B00089E894E0918380838DEC90E095878487D3
:1061C0008CEC90E09787868788EC90E0918B808BB1
:1061D00089EC90E0938B828B8AEC90E0958B848B9A
:1061E0008EEC90E0978B868B118E128E138E148E10
:1061F00008951F920F920FB60F9211240BB60F92B3
:106200002F938F939F93EF93FF93E091EA07F09181
:10621000EB078081E091F007F091F10782FD1DC04E
:1062200090818091F3078F5F8F732091F40782171D
:1062300041F0E091F307F0E0E652F84F958F80933C
:10624000F307FF91EF919F918F912F910F900BBECC
:106250000F900FBE0F901F9018958081F2CF1F9264
:106260000F920FB60F9211240BB60F922F933F93FC
:106270004F935F936F937F938F939F93AF93BF934E
:10628000EF93FF938AED97E0AFDDFF91EF91BF9120
:10629000AF919F918F917F916F915F914F913F91BE
:1062A0002F910F900BBE0F900FBE0F901F9018955F
:1062B000EAEDF7E01382128288EE93E0A0E0B0E00E
:1062C00084839583A683B78389E894E09183808350
:1062D00085ED90E09587848784ED90E097878687A9
:1062E00080ED90E0918B808B81ED90E0938B828BA1
:1062F00082ED90E0958B848B86ED90E0978B868B7A
:10630000118E128E138E148E08951F920F920FB657
:106310000F9211240BB60F922F938F939F93EF93AD
:10632000FF93E0918708F09188088081E0918D08C3
:10633000F0918E0882FD1DC09081809190088F5F42
:106340008F7320919108821741F0E0919008F0E05E
:10635000E958F74F958F80939008FF91EF919F91A7
:106360008F912F910F900BBE0F900FBE0F901F902B
:1063700018958081F2CF1F920F920FB60F921124C1
:106380000BB60F922F933F934F935F936F937F932F
:106390008F939F93AF93BF93EF93FF9387E798E01B
:1063A00023DDFF91EF91BF91AF919F918F917F91ED
:1063B0006F915F914F913F912F910F900BBE0F9076
:1063C0000FBE0F901F901895E7E7F8E01382128236
:1063D00088EE93E0A0E0B0E084839583A683B78342
:1063E00089E894E09183808385E391E095878487B1
:1063F00084E391E09787868780E391E0918B808B9F
:1064000081E391E0938B828B82E391E0958B848B87
:1064100086E391E0978B868B118E128E138E148EED
:106420000895AF92BF92CF92DF92EF92FF920F93B7
:106430001F93CF93DF936C017B018B01040F151F1A
:10644000EB015E01AE18BF08C017D10759F0699182
:10645000D601ED91FC910190F081E02DC6011995D6
:10646000892B79F7C501DF91CF911F910F91FF9093
:10647000EF90DF90CF90BF90AF900895089597FB75
:10648000072E16F4009406D077FD08D035D007FC0F
:1064900005D03EF4909581959F4F08957095619534
:1064A0007F4F0895A1E21A2EAA1BBB1BFD010DC050
:1064B000AA1FBB1FEE1FFF1FA217B307E407F507B4
:1064C00020F0A21BB30BE40BF50B661F771F881F90
:1064D000991F1A9469F760957095809590959B0126
:1064E000AC01BD01CF010895EE0FFF1F881F8BBFC8
:1064F0000790F691E02D1994AA1BBB1B51E107C030
:10650000AA1FBB1FA617B70710F0A61BB70B881F43
:10651000991F5A95A9F780959095BC01CD010895D2
:106520000F931F93CF93DF93869F8001879F100D5A
:10653000969F100D1124C8010DD0EC01009721F099
:10654000A80170E060E034D1CE01DF91CF911F91BE
:106550000F9108950F931F93CF93DF93823091058E
:1065600010F482E090E0E091BE09F091BF0930E0C4
:1065700020E0B0E0A0E0309799F42115310509F44E
:106580004AC0281B390B24303105D8F58A819B81FC
:106590006115710589F1FB0193838283FE0111C0AE
:1065A000408151810281138148175907E0F0481753
:1065B000590799F4109761F012960C93129713965D
:1065C0001C933296CF01DF91CF911F910F910895C7
:1065D0000093BE091093BF09F4CF2115310551F086
:1065E0004217530738F0A901DB019A01BD01DF0111
:1065F000F801C1CFEF01F9CF9093BF098093BE0995
:10660000CDCFFE01E20FF31F819391932250310908
:1066100039832883D7CF2091BC093091BD09232B22
:1066200041F420910202309103023093BD0920937E
:10663000BC0920910002309101022115310541F47D
:106640002DB73EB74091040250910502241B350B33
:10665000E091BC09F091BD09E217F307A0F42E1BED
:106660003F0B2817390778F0AC014E5F5F4F2417B6
:10667000350748F04E0F5F1F5093BD094093BC098A
:10668000819391939FCFF0E0E0E09CCFCF93DF9395
:106690000097E9F0FC01329713821282A091BE09A3
:1066A000B091BF09ED0130E020E01097A1F4208106
:1066B0003181820F931F2091BC093091BD092817A9
:1066C000390709F061C0F093BD09E093BC09DF917F
:1066D000CF910895EA01CE17DF07E8F54A815B8183
:1066E0009E0141155105B1F7E901FB83EA83499108
:1066F0005991C40FD51FEC17FD0761F4808191817A
:106700000296840F951FE901998388838281938182
:106710009B838A83F0E0E0E012968D919C91139721
:106720000097B9F52D913C911197CD010296820FFA
:10673000931F2091BC093091BD092817390739F6FC
:10674000309751F51092BF091092BE09B093BD0960
:10675000A093BC09BCCFD383C28340815181840FF5
:10676000951FC817D90761F44E5F5F4F88819981E3
:10677000480F591F518340838A819B819383828371
:106780002115310509F0B0CFF093BF09E093BE09A0
:106790009ECFFD01DC01C0CF13821282D7CFFB0157
:1067A000DC0102C001900D9241505040D8F708958D
:1067B000DC0101C06D9341505040E0F70895FB01AA
:1067C000DC018D91019080190110D9F3990B089586
:0467D000F894FFCF6B
:1067D4000000C009800004000A02E6020000000074
:1067E40019004A030F00000005005E0300000000CA
:1067F400010062030000000001000D002E022C09BC
:1068040000000000050040090700000001004409E1
:106814001000000001005009110000000100580997
:106824001300000001006409120000000200740952
:10683400000000000B00A0090B0000000100A209E9
:10684400070000000300AE09020000000500B309C0
:10685400080000000500B809020000000100B909A1
:1068640002000000010091039803A203A103AA03FC
:10687400A903B303B203BB03C503D003D603E003E8
:10688400E903B203B203FD03080413041E04040065
:1068940004000100010002000200040004000100E1
:1068A40004000200020004000800040004000C00BC
:1068B400080008000C00000080BF00000000000079
:1068C40000000000A040000000000000A040000004
:1068D40000002CF33A4000000000000000400000DB
:1068E40020C00000004000004843000048C3333388
:1068F400233F000000000000000000000000000032
:10690400A0400000000000000000000000000000A3
:106914000000000000000000000089793BC6000070
:106924000000000000000000000000000000000063
:1069340080BF0000803F01010100122A122A122A9E
:10694400122A122A122A122A122A53696D756C61AC
:1069540074696F6E2066696E69736865640001DB33
:10696400047265616C5F54007265616C33325F540C
:106974000075696E74385F540075696E7431365FE2
:10698400540075696E7433325F5400626F6F6C65C6
:10699400616E5F540066636E5F63616C6C5F54008C
:1069A400696E745F5400706F696E7465725F540031
:1069B400616374696F6E5F540074696D65725F75AD
:1069C400696E7433325F706169725F54006B6C621C
:1069D4007A73777073766A0069797A7677706B6404
:1069E40065650070616A76786F6A31733100697920
:1069F40076717769656C6B61002D77002D69676E20
:106A04006F72652D61726700436F756C64206E6FE1
:106A140074206372656174652065787465726E6153
:106A24006C206D6F64652075736572206461746198
:106A34002E20204F7574206F66206D656D6F7279FE
:106A44002E0A00000000004F287D2822284E282509
:106A5400282C283F2800000000352F1132E52E167F
:086A64002FB72ED12EC32E0026
:00000001FF
